{
  "contractName": "DoctorRegistry",
  "abi": [
    {
      "anonymous": false,
      "inputs": [
        {
          "indexed": true,
          "internalType": "address",
          "name": "doctorAddress",
          "type": "address"
        },
        {
          "indexed": false,
          "internalType": "string",
          "name": "firstName",
          "type": "string"
        },
        {
          "indexed": false,
          "internalType": "string",
          "name": "lastName",
          "type": "string"
        }
      ],
      "name": "DoctorRegistered",
      "type": "event"
    },
    {
      "inputs": [
        {
          "internalType": "string",
          "name": "_title",
          "type": "string"
        },
        {
          "internalType": "string",
          "name": "_firstName",
          "type": "string"
        },
        {
          "internalType": "string",
          "name": "_lastName",
          "type": "string"
        },
        {
          "internalType": "string",
          "name": "_hospitalName",
          "type": "string"
        },
        {
          "internalType": "string",
          "name": "_registrationNumber",
          "type": "string"
        },
        {
          "internalType": "string",
          "name": "_gender",
          "type": "string"
        },
        {
          "internalType": "string",
          "name": "_nic",
          "type": "string"
        },
        {
          "internalType": "string",
          "name": "_addressInfo",
          "type": "string"
        },
        {
          "internalType": "string",
          "name": "_phone",
          "type": "string"
        },
        {
          "internalType": "string",
          "name": "_email",
          "type": "string"
        },
        {
          "internalType": "string",
          "name": "_specialization",
          "type": "string"
        },
        {
          "internalType": "string",
          "name": "_password",
          "type": "string"
        }
      ],
      "name": "registerDoctor",
      "outputs": [],
      "stateMutability": "nonpayable",
      "type": "function"
    },
    {
      "inputs": [
        {
          "internalType": "string",
          "name": "_email",
          "type": "string"
        },
        {
          "internalType": "string",
          "name": "_password",
          "type": "string"
        }
      ],
      "name": "loginDoctor",
      "outputs": [
        {
          "internalType": "bool",
          "name": "",
          "type": "bool"
        }
      ],
      "stateMutability": "view",
      "type": "function",
      "constant": true
    },
    {
      "inputs": [
        {
          "internalType": "address",
          "name": "_addr",
          "type": "address"
        }
      ],
      "name": "getDoctorByAddress",
      "outputs": [
        {
          "internalType": "string",
          "name": "",
          "type": "string"
        },
        {
          "internalType": "string",
          "name": "",
          "type": "string"
        },
        {
          "internalType": "string",
          "name": "",
          "type": "string"
        },
        {
          "internalType": "string",
          "name": "",
          "type": "string"
        },
        {
          "internalType": "string",
          "name": "",
          "type": "string"
        },
        {
          "internalType": "string",
          "name": "",
          "type": "string"
        },
        {
          "internalType": "string",
          "name": "",
          "type": "string"
        },
        {
          "internalType": "string",
          "name": "",
          "type": "string"
        },
        {
          "internalType": "string",
          "name": "",
          "type": "string"
        },
        {
          "internalType": "string",
          "name": "",
          "type": "string"
        },
        {
          "internalType": "string",
          "name": "",
          "type": "string"
        },
        {
          "internalType": "bool",
          "name": "",
          "type": "bool"
        }
      ],
      "stateMutability": "view",
      "type": "function",
      "constant": true
    },
    {
      "inputs": [
        {
          "internalType": "address",
          "name": "_addr",
          "type": "address"
        }
      ],
      "name": "isDoctorRegistered",
      "outputs": [
        {
          "internalType": "bool",
          "name": "",
          "type": "bool"
        }
      ],
      "stateMutability": "view",
      "type": "function",
      "constant": true
    },
    {
      "inputs": [],
      "name": "getAllDoctors",
      "outputs": [
        {
          "internalType": "address[]",
          "name": "",
          "type": "address[]"
        }
      ],
      "stateMutability": "view",
      "type": "function",
      "constant": true
    }
  ],
  "bytecode": "0x60808060405234610016576116f5908161001b8239f35b5f80fdfe6080806040526004361015610012575f80fd5b5f3560e01c90816358c5d4bf146112f85750806376dfde8e1461031d57806378550390146102da578063d0155f2e146101135763f0d9509014610053575f80fd5b3461010f575f36600319011261010f5760405180600180549283815260208091018094835f527fb10e2d527612073b26eecdfd717e6a320cf44b4afac2b0732d9fcbe2b7fa0cf6905f5b8181106100f357505050836100b3910384611570565b6040519281840190828552518091526040840194915f5b8281106100d75785870386f35b83516001600160a01b03168752958101959281019284016100ca565b82546001600160a01b031684529284019291850191850161009d565b5f80fd5b3461010f57604036600319011261010f576001600160401b0360043581811161010f57610144903690600401611591565b9060243590811161010f5761015d903690600401611591565b335f526020915f835260ff600c60405f200154161561029d57335f525f8352600960405f20016040518481818101935f908054610199816115e6565b9160019180831690811561027d5750600114610240575b5050506101c6925003601f198101835282611570565b519020906040516101f38582816101e6818301968781519384920161150e565b8101038084520182611570565b5190201490335f525f8352600b60405f200154906040516102238582816101e6818301968781519384920161150e565b5190201481610238575b506040519015158152f35b90508261022d565b5f908152858120929350915b83831061026757505050916101c692820101879289806101b0565b805487840187015286945091850191810161024c565b925050506101c694925060ff1916865280151502820101879289806101b0565b60405162461bcd60e51b8152600481018490526015602482015274111bd8dd1bdc881b9bdd081c9959da5cdd195c9959605a1b6044820152606490fd5b3461010f57602036600319011261010f576004356001600160a01b0381169081900361010f575f525f602052602060ff600c60405f200154166040519015158152f35b3461010f5761018036600319011261010f576004356001600160401b03811161010f5761034e903690600401611591565b6024356001600160401b03811161010f5761036d903690600401611591565b6044356001600160401b03811161010f5761038c903690600401611591565b916064356001600160401b03811161010f576103ac903690600401611591565b6084356001600160401b03811161010f576103cb903690600401611591565b60a4356001600160401b03811161010f576103ea903690600401611591565b60c4356001600160401b03811161010f57610409903690600401611591565b60e4356001600160401b03811161010f57610428903690600401611591565b610104356001600160401b03811161010f57610448903690600401611591565b91610124356001600160401b03811161010f57610469903690600401611591565b936001600160401b03610144351161010f5761048b3661014435600401611591565b95610164356001600160401b03811161010f576104ac903690600401611591565b335f525f60205260ff600c60405f200154166112b3576040516104df602082816101e6818301968781519384920161150e565b51902097604051996104f08b611554565b8a528a60208b01528b60408b015260608a0152608089015260a088015260c087015260e08601526101008501526101208401526101408301526101608201526001610180820152335f525f60205260405f2081518051906001600160401b038211610a0f57819061056184546115e6565b601f8111611266575b50602090601f83116001146111fe575f926111f3575b50508160011b915f199060031b1c19161781555b60208201518051906001600160401b038211610a0f5781906105b960018501546115e6565b601f81116111a3575b50602090601f8311600114611135575f9261112a575b50508160011b915f199060031b1c19161760018201555b60408201518051906001600160401b038211610a0f57819061061460028501546115e6565b601f81116110da575b50602090601f831160011461106c575f92611061575b50508160011b915f199060031b1c19161760028201555b60608201518051906001600160401b038211610a0f57819061066f60038501546115e6565b601f8111611011575b50602090601f8311600114610fa3575f92610f98575b50508160011b915f199060031b1c19161760038201555b60808201518051906001600160401b038211610a0f5781906106ca60048501546115e6565b601f8111610f48575b50602090601f8311600114610eda575f92610ecf575b50508160011b915f199060031b1c19161760048201555b60a08201518051906001600160401b038211610a0f57819061072560058501546115e6565b601f8111610e7f575b50602090601f8311600114610e11575f92610e06575b50508160011b915f199060031b1c19161760058201555b60c08201518051906001600160401b038211610a0f57819061078060068501546115e6565b601f8111610db6575b50602090601f8311600114610d48575f92610d3d575b50508160011b915f199060031b1c19161760068201555b60e08201518051906001600160401b038211610a0f5781906107db60078501546115e6565b601f8111610ced575b50602090601f8311600114610c7f575f92610c74575b50508160011b915f199060031b1c19161760078201555b6101008201518051906001600160401b038211610a0f57819061083760088501546115e6565b601f8111610c24575b50602090601f8311600114610bb6575f92610bab575b50508160011b915f199060031b1c19161760088201555b6101208201518051906001600160401b038211610a0f57819061089360098501546115e6565b601f8111610b5b575b50602090601f8311600114610aed575f92610ae2575b50508160011b915f199060031b1c19161760098201555b6101408201518051906001600160401b038211610a0f576108ed600a8401546115e6565b601f8111610a9e575b50602090601f8311600114610a2e5791806101809492600c945f92610a23575b50508160011b915f199060031b1c191617600a8201555b610160840151600b82015501910151151560ff8019835416911617905560015468010000000000000000811015610a0f5760018101806001558110156109fb577fbc3a5b2aeb1bc52e3d56d3fd3423dd66cea5ecff8ae1f3bd0d75a0e608da7b85916109e79160015f527fb10e2d527612073b26eecdfd717e6a320cf44b4afac2b0732d9fcbe2b7fa0cf601336bffffffffffffffffffffffff60a01b8254161790556109f660405192839260408452604084019061152f565b8281036020840152339561152f565b0390a2005b634e487b7160e01b5f52603260045260245ffd5b634e487b7160e01b5f52604160045260245ffd5b015190508880610916565b90601f19831691600a85015f5260205f20925f5b818110610a865750926001928592600c96610180989610610a6e575b505050811b01600a82015561092d565b01515f1960f88460031b161c19169055888080610a5e565b92936020600181928786015181550195019301610a42565b600a84015f5260205f20601f840160051c810160208510610adb575b601f830160051c82018110610ad05750506108f6565b5f8155600101610aba565b5080610aba565b0151905086806108b2565b9250600984015f5260205f20905f935b601f1984168510610b40576001945083601f19811610610b28575b505050811b0160098201556108c9565b01515f1960f88460031b161c19169055868080610b18565b81810151835560209485019460019093019290910190610afd565b909150600984015f5260205f20601f840160051c810160208510610ba4575b90849392915b601f830160051c82018110610b9657505061089c565b5f8155859450600101610b80565b5080610b7a565b015190508680610856565b9250600884015f5260205f20905f935b601f1984168510610c09576001945083601f19811610610bf1575b505050811b01600882015561086d565b01515f1960f88460031b161c19169055868080610be1565b81810151835560209485019460019093019290910190610bc6565b909150600884015f5260205f20601f840160051c810160208510610c6d575b90849392915b601f830160051c82018110610c5f575050610840565b5f8155859450600101610c49565b5080610c43565b0151905086806107fa565b9250600784015f5260205f20905f935b601f1984168510610cd2576001945083601f19811610610cba575b505050811b016007820155610811565b01515f1960f88460031b161c19169055868080610caa565b81810151835560209485019460019093019290910190610c8f565b909150600784015f5260205f20601f840160051c810160208510610d36575b90849392915b601f830160051c82018110610d285750506107e4565b5f8155859450600101610d12565b5080610d0c565b01519050868061079f565b9250600684015f5260205f20905f935b601f1984168510610d9b576001945083601f19811610610d83575b505050811b0160068201556107b6565b01515f1960f88460031b161c19169055868080610d73565b81810151835560209485019460019093019290910190610d58565b909150600684015f5260205f20601f840160051c810160208510610dff575b90849392915b601f830160051c82018110610df1575050610789565b5f8155859450600101610ddb565b5080610dd5565b015190508680610744565b9250600584015f5260205f20905f935b601f1984168510610e64576001945083601f19811610610e4c575b505050811b01600582015561075b565b01515f1960f88460031b161c19169055868080610e3c565b81810151835560209485019460019093019290910190610e21565b909150600584015f5260205f20601f840160051c810160208510610ec8575b90849392915b601f830160051c82018110610eba57505061072e565b5f8155859450600101610ea4565b5080610e9e565b0151905086806106e9565b9250600484015f5260205f20905f935b601f1984168510610f2d576001945083601f19811610610f15575b505050811b016004820155610700565b01515f1960f88460031b161c19169055868080610f05565b81810151835560209485019460019093019290910190610eea565b909150600484015f5260205f20601f840160051c810160208510610f91575b90849392915b601f830160051c82018110610f835750506106d3565b5f8155859450600101610f6d565b5080610f67565b01519050868061068e565b9250600384015f5260205f20905f935b601f1984168510610ff6576001945083601f19811610610fde575b505050811b0160038201556106a5565b01515f1960f88460031b161c19169055868080610fce565b81810151835560209485019460019093019290910190610fb3565b909150600384015f5260205f20601f840160051c81016020851061105a575b90849392915b601f830160051c8201811061104c575050610678565b5f8155859450600101611036565b5080611030565b015190508680610633565b9250600284015f5260205f20905f935b601f19841685106110bf576001945083601f198116106110a7575b505050811b01600282015561064a565b01515f1960f88460031b161c19169055868080611097565b8181015183556020948501946001909301929091019061107c565b909150600284015f5260205f20601f840160051c810160208510611123575b90849392915b601f830160051c8201811061111557505061061d565b5f81558594506001016110ff565b50806110f9565b0151905086806105d8565b9250600184015f5260205f20905f935b601f1984168510611188576001945083601f19811610611170575b505050811b0160018201556105ef565b01515f1960f88460031b161c19169055868080611160565b81810151835560209485019460019093019290910190611145565b909150600184015f5260205f20601f840160051c8101602085106111ec575b90849392915b601f830160051c820181106111de5750506105c2565b5f81558594506001016111c8565b50806111c2565b015190508680610580565b9250835f5260205f20905f935b601f198416851061124b576001945083601f19811610611233575b505050811b018155610594565b01515f1960f88460031b161c19169055868080611226565b8181015183556020948501946001909301929091019061120b565b909150835f5260205f20601f840160051c8101602085106112ac575b90849392915b601f830160051c8201811061129e57505061056a565b5f8155859450600101611288565b5080611282565b60405162461bcd60e51b815260206004820152601960248201527f446f63746f7220616c72656164792072656769737465726564000000000000006044820152606490fd5b3461010f57602036600319011261010f576004356001600160a01b0381169081900361010f575f525f60205260405f2061133182611554565b61133a8161161e565b82526113486001820161161e565b602083019081529061135c6002820161161e565b604084015261136d6003820161161e565b606084015261137e6004820161161e565b608084015261138f6005820161161e565b60a08401526113a06006820161161e565b60c08401526113b16007820161161e565b60e08401526113c26008820161161e565b6101008401526113d46009820161161e565b6101208401526113e6600a820161161e565b9081610140850152600b810154610160850152600c015460ff161515908161018085015283519251936040810151906060810151608082015160a083015160c08401519160e085015193610100860151956101200151966040519b8c9b6101808d526101808d016114569161152f565b8c810360208e01526114679161152f565b8b810360408d01526114789161152f565b8a810360608c01526114899161152f565b89810360808b015261149a9161152f565b88810360a08a01526114ab9161152f565b87810360c08901526114bc9161152f565b86810360e08801526114cd9161152f565b8581036101008701526114df9161152f565b8481036101208601526114f19161152f565b8381036101408501526115039161152f565b906101608301520390f35b5f5b83811061151f5750505f910152565b8181015183820152602001611510565b906020916115488151809281855285808601910161150e565b601f01601f1916010190565b6101a081019081106001600160401b03821117610a0f57604052565b90601f801991011681019081106001600160401b03821117610a0f57604052565b81601f8201121561010f578035906001600160401b038211610a0f57604051926115c5601f8401601f191660200185611570565b8284526020838301011161010f57815f926020809301838601378301015290565b90600182811c92168015611614575b602083101461160057565b634e487b7160e01b5f52602260045260245ffd5b91607f16916115f5565b9060405191825f825492611631846115e6565b9081845260019485811690815f1461169c575060011461165c575b505061165a92500383611570565b565b909391505f52602090815f20935f915b81831061168457505061165a93508201015f8061164c565b8554888401850152948501948794509183019161166c565b91505061165a94506020925060ff191682840152151560051b8201015f8061164c56fea264697066735822122055ce26890f2214b4b55b568af5ea82fd5e02984e6ac520816d6fa8226056cb7564736f6c63430008140033",
  "immutableReferences": {},
  "source": "// SPDX-License-Identifier: MIT\r\npragma solidity ^0.8.0;\r\n\r\ncontract DoctorRegistry {\r\n    struct Doctor {\r\n        string title;\r\n        string firstName;\r\n        string lastName;\r\n        string hospitalName;\r\n        string registrationNumber;\r\n        string gender;\r\n        string nic;\r\n        string addressInfo;\r\n        string phone;\r\n        string email;\r\n        string specialization;\r\n        bytes32 passwordHash;\r\n        bool isRegistered;\r\n    }\r\n\r\n    mapping(address => Doctor) private doctors;\r\n    address[] private doctorAddresses;\r\n\r\n    event DoctorRegistered(\r\n        address indexed doctorAddress,\r\n        string firstName,\r\n        string lastName\r\n    );\r\n\r\n    function registerDoctor(\r\n        string memory _title,\r\n        string memory _firstName,\r\n        string memory _lastName,\r\n        string memory _hospitalName,\r\n        string memory _registrationNumber,\r\n        string memory _gender,\r\n        string memory _nic,\r\n        string memory _addressInfo,\r\n        string memory _phone,\r\n        string memory _email,\r\n        string memory _specialization,\r\n        string memory _password\r\n    ) public {\r\n        require(!doctors[msg.sender].isRegistered, \"Doctor already registered\");\r\n\r\n        doctors[msg.sender] = Doctor({\r\n            title: _title,\r\n            firstName: _firstName,\r\n            lastName: _lastName,\r\n            hospitalName: _hospitalName,\r\n            registrationNumber: _registrationNumber,\r\n            gender: _gender,\r\n            nic: _nic,\r\n            addressInfo: _addressInfo,\r\n            phone: _phone,\r\n            email: _email,\r\n            specialization: _specialization,\r\n            passwordHash: keccak256(abi.encodePacked(_password)),\r\n            isRegistered: true\r\n        });\r\n\r\n        doctorAddresses.push(msg.sender);\r\n        emit DoctorRegistered(msg.sender, _firstName, _lastName);\r\n    }\r\n\r\n    function loginDoctor(\r\n        string memory _email,\r\n        string memory _password\r\n    ) public view returns (bool) {\r\n        require(doctors[msg.sender].isRegistered, \"Doctor not registered\");\r\n\r\n        bool emailMatches = keccak256(\r\n            abi.encodePacked(doctors[msg.sender].email)\r\n        ) == keccak256(abi.encodePacked(_email));\r\n        bool passwordMatches = doctors[msg.sender].passwordHash ==\r\n            keccak256(abi.encodePacked(_password));\r\n\r\n        return emailMatches && passwordMatches;\r\n    }\r\n\r\n    function getDoctorByAddress(\r\n        address _addr\r\n    )\r\n        public\r\n        view\r\n        returns (\r\n            string memory,\r\n            string memory,\r\n            string memory,\r\n            string memory,\r\n            string memory,\r\n            string memory,\r\n            string memory,\r\n            string memory,\r\n            string memory,\r\n            string memory,\r\n            string memory,\r\n            bool\r\n        )\r\n    {\r\n        Doctor memory d = doctors[_addr];\r\n        return (\r\n            d.title,\r\n            d.firstName,\r\n            d.lastName,\r\n            d.hospitalName,\r\n            d.registrationNumber,\r\n            d.gender,\r\n            d.nic,\r\n            d.addressInfo,\r\n            d.phone,\r\n            d.email,\r\n            d.specialization,\r\n            d.isRegistered\r\n        );\r\n    }\r\n\r\n    function isDoctorRegistered(address _addr) public view returns (bool) {\r\n        return doctors[_addr].isRegistered;\r\n    }\r\n\r\n    function getAllDoctors() public view returns (address[] memory) {\r\n        return doctorAddresses;\r\n    }\r\n}\r\n",
  "sourcePath": "C:\\Users\\Gayan\\Documents\\Medicrypt\\blockchain\\contracts\\DoctorRegistry.sol",
  "compiler": {
    "name": "solc",
    "version": "0.8.20+commit.a1b79de6.Emscripten.clang"
  },
  "schemaVersion": "3.4.16",
  "updatedAt": "2025-07-07T11:15:26.678Z",
  "networkType": "ethereum",
  "devdoc": {
    "kind": "dev",
    "methods": {},
    "version": 1
  },
  "userdoc": {
    "kind": "user",
    "methods": {},
    "version": 1
  }
}