{
  "contractName": "HospitalRegistry",
  "abi": [
    {
      "anonymous": false,
      "inputs": [
        {
          "indexed": true,
          "internalType": "address",
          "name": "hospitalAddress",
          "type": "address"
        },
        {
          "indexed": false,
          "internalType": "string",
          "name": "name",
          "type": "string"
        }
      ],
      "name": "HospitalRegistered",
      "type": "event"
    },
    {
      "inputs": [
        {
          "internalType": "string",
          "name": "_name",
          "type": "string"
        },
        {
          "internalType": "string",
          "name": "_regNumber",
          "type": "string"
        },
        {
          "internalType": "string",
          "name": "_hospitalType",
          "type": "string"
        },
        {
          "internalType": "string",
          "name": "_addressInfo",
          "type": "string"
        },
        {
          "internalType": "string",
          "name": "_email",
          "type": "string"
        },
        {
          "internalType": "string",
          "name": "_phone",
          "type": "string"
        },
        {
          "internalType": "string",
          "name": "_branch",
          "type": "string"
        },
        {
          "internalType": "string",
          "name": "_website",
          "type": "string"
        },
        {
          "internalType": "string",
          "name": "_password",
          "type": "string"
        }
      ],
      "name": "registerHospital",
      "outputs": [],
      "stateMutability": "nonpayable",
      "type": "function"
    },
    {
      "inputs": [
        {
          "internalType": "string",
          "name": "_email",
          "type": "string"
        },
        {
          "internalType": "string",
          "name": "_password",
          "type": "string"
        }
      ],
      "name": "loginHospital",
      "outputs": [
        {
          "internalType": "bool",
          "name": "",
          "type": "bool"
        }
      ],
      "stateMutability": "view",
      "type": "function",
      "constant": true
    },
    {
      "inputs": [
        {
          "internalType": "address",
          "name": "_addr",
          "type": "address"
        }
      ],
      "name": "getHospitalByAddress",
      "outputs": [
        {
          "internalType": "string",
          "name": "name",
          "type": "string"
        },
        {
          "internalType": "string",
          "name": "regNumber",
          "type": "string"
        },
        {
          "internalType": "string",
          "name": "hospitalType",
          "type": "string"
        },
        {
          "internalType": "string",
          "name": "addressInfo",
          "type": "string"
        },
        {
          "internalType": "string",
          "name": "email",
          "type": "string"
        },
        {
          "internalType": "string",
          "name": "phone",
          "type": "string"
        },
        {
          "internalType": "string",
          "name": "branch",
          "type": "string"
        },
        {
          "internalType": "string",
          "name": "website",
          "type": "string"
        },
        {
          "internalType": "bool",
          "name": "isRegistered",
          "type": "bool"
        }
      ],
      "stateMutability": "view",
      "type": "function",
      "constant": true
    },
    {
      "inputs": [
        {
          "internalType": "address",
          "name": "_addr",
          "type": "address"
        }
      ],
      "name": "isHospitalRegistered",
      "outputs": [
        {
          "internalType": "bool",
          "name": "",
          "type": "bool"
        }
      ],
      "stateMutability": "view",
      "type": "function",
      "constant": true
    },
    {
      "inputs": [],
      "name": "getAllHospitals",
      "outputs": [
        {
          "internalType": "address[]",
          "name": "",
          "type": "address[]"
        }
      ],
      "stateMutability": "view",
      "type": "function",
      "constant": true
    }
  ],
  "bytecode": "0x6080806040523461001657611226908161001b8239f35b5f80fdfe6080806040526004361015610012575f80fd5b5f3560e01c9081634e9f715414610f865750806351928b2c14610df4578063aba2394014610269578063bc84243e146102265763f2f8c31614610053575f80fd5b34610222576040366003190112610222576001600160401b03600435818111610222576100849036906004016110c2565b906024359081116102225761009d9036906004016110c2565b335f526020915f835260ff600960405f20015416156101dd57335f525f8352600460405f20016040518481818101935f9080546100d981611117565b916001918083169081156101bd5750600114610180575b505050610106925003601f1981018352826110a1565b51902090604051610133858281610126818301968781519384920161103f565b81010380845201826110a1565b5190201490335f525f8352600860405f20015490604051610163858281610126818301968781519384920161103f565b5190201481610178575b506040519015158152f35b90505f61016d565b5f908152858120929350915b8383106101a757505050916101069282010187925f806100f0565b805487840187015286945091850191810161018c565b9250505061010694925060ff191686528015150282010187925f806100f0565b60405162461bcd60e51b815260048101849052601760248201527f486f73706974616c206e6f7420726567697374657265640000000000000000006044820152606490fd5b5f80fd5b34610222576020366003190112610222576004356001600160a01b03811690819003610222575f525f602052602060ff600960405f200154166040519015158152f35b3461022257610120366003190112610222576004356001600160401b0381116102225761029a9036906004016110c2565b6024356001600160401b038111610222576102b99036906004016110c2565b906044356001600160401b038111610222576102d99036906004016110c2565b6064356001600160401b038111610222576102f89036906004016110c2565b6084356001600160401b038111610222576103179036906004016110c2565b60a4356001600160401b038111610222576103369036906004016110c2565b60c4356001600160401b038111610222576103559036906004016110c2565b9160e4356001600160401b038111610222576103759036906004016110c2565b93610104356001600160401b038111610222576103969036906004016110c2565b335f525f60205260ff600960405f20015416610daf576040516103c960208281610126818301968781519384920161103f565b51902095604051986103da8a611085565b888a5260208a015260408901526060880152608087015260a086015260c085015260e08401526101008301526001610120830152335f525f60205260405f209180519283516001600160401b0381116107cd576104378254611117565b601f8111610d6e575b506020601f8211600114610d095781929394955f92610cfe575b50508160011b915f199060031b1c19161781555b60208201519283516001600160401b0381116107cd576104916001840154611117565b601f8111610cba575b506020601f8211600114610c4f5781929394955f92610c44575b50508160011b915f199060031b1c19161760018301555b60408301519283516001600160401b0381116107cd576104ee6002850154611117565b601f8111610c00575b506020601f8211600114610b955781929394955f92610b8a575b50508160011b915f199060031b1c19161760028401555b60608101519283516001600160401b0381116107cd5761054b6003830154611117565b601f8111610b46575b506020601f8211600114610adb5781929394955f92610ad0575b50508160011b915f199060031b1c19161760038201555b60808201519283516001600160401b0381116107cd576105a86004840154611117565b601f8111610a8c575b506020601f8211600114610a215781929394955f92610a16575b50508160011b915f199060031b1c19161760048301555b60a08301519283516001600160401b0381116107cd576106056005850154611117565b601f81116109d2575b506020601f82116001146109675781929394955f9261095c575b50508160011b915f199060031b1c19161760058401555b60c08101519283516001600160401b0381116107cd576106626006830154611117565b601f8111610918575b506020601f82116001146108ad5781929394955f926108a2575b50508160011b915f199060031b1c19161760068201555b60e08201518051906001600160401b0382116107cd576106bf6007840154611117565b601f811161085e575b50602090601f83116001146107ec57918061012094926009945f926107e1575b50508160011b915f199060031b1c19161760078201555b610100840151600882015501910151151560ff80198354169116179055600154680100000000000000008110156107cd5760018101806001558110156107b95760015f527fb10e2d527612073b26eecdfd717e6a320cf44b4afac2b0732d9fcbe2b7fa0cf601336bffffffffffffffffffffffff60a01b8254161790557f72cefccb74b7edacb21023a72b39a2cecb1123ba70d1eea03d3509d046b941c260405160208152806107b433946020830190611060565b0390a2005b634e487b7160e01b5f52603260045260245ffd5b634e487b7160e01b5f52604160045260245ffd5b0151905087806106e8565b90600784015f5260205f20915f5b601f1985168110610846575092610120949260019260099583601f1981161061082e575b505050811b0160078201556106ff565b01515f1960f88460031b161c1916905587808061081e565b919260206001819286850151815501940192016107fa565b600784015f5260205f20601f840160051c81016020851061089b575b601f830160051c820181106108905750506106c8565b5f815560010161087a565b508061087a565b015190508580610685565b600683015f5260205f20905f5b601f1984168110610900575060019394959683601f198116106108e8575b505050811b01600682015561069c565b01515f1960f88460031b161c191690558580806108d8565b9091602060018192858b0151815501930191016108ba565b600683015f5260205f20601f830160051c810160208410610955575b601f830160051c8201811061094a57505061066b565b5f8155600101610934565b5080610934565b015190508580610628565b600585015f5260205f20905f5b601f19841681106109ba575060019394959683601f198116106109a2575b505050811b01600584015561063f565b01515f1960f88460031b161c19169055858080610992565b9091602060018192858b015181550193019101610974565b600585015f5260205f20601f830160051c810160208410610a0f575b601f830160051c82018110610a0457505061060e565b5f81556001016109ee565b50806109ee565b0151905085806105cb565b600484015f5260205f20905f5b601f1984168110610a74575060019394959683601f19811610610a5c575b505050811b0160048301556105e2565b01515f1960f88460031b161c19169055858080610a4c565b9091602060018192858b015181550193019101610a2e565b600484015f5260205f20601f830160051c810160208410610ac9575b601f830160051c82018110610abe5750506105b1565b5f8155600101610aa8565b5080610aa8565b01519050858061056e565b600383015f5260205f20905f5b601f1984168110610b2e575060019394959683601f19811610610b16575b505050811b016003820155610585565b01515f1960f88460031b161c19169055858080610b06565b9091602060018192858b015181550193019101610ae8565b600383015f5260205f20601f830160051c810160208410610b83575b601f830160051c82018110610b78575050610554565b5f8155600101610b62565b5080610b62565b015190508580610511565b600285015f5260205f20905f5b601f1984168110610be8575060019394959683601f19811610610bd0575b505050811b016002840155610528565b01515f1960f88460031b161c19169055858080610bc0565b9091602060018192858b015181550193019101610ba2565b600285015f5260205f20601f830160051c810160208410610c3d575b601f830160051c82018110610c325750506104f7565b5f8155600101610c1c565b5080610c1c565b0151905085806104b4565b600184015f5260205f20905f5b601f1984168110610ca2575060019394959683601f19811610610c8a575b505050811b0160018301556104cb565b01515f1960f88460031b161c19169055858080610c7a565b9091602060018192858b015181550193019101610c5c565b600184015f5260205f20601f830160051c810160208410610cf7575b601f830160051c82018110610cec57505061049a565b5f8155600101610cd6565b5080610cd6565b01519050858061045a565b825f5260205f20905f5b601f1984168110610d56575060019394959683601f19811610610d3e575b505050811b01815561046e565b01515f1960f88460031b161c19169055858080610d31565b9091602060018192858b015181550193019101610d13565b825f5260205f20601f830160051c810160208410610da8575b601f830160051c82018110610d9d575050610440565b5f8155600101610d87565b5080610d87565b60405162461bcd60e51b815260206004820152601b60248201527f486f73706974616c20616c7265616479207265676973746572656400000000006044820152606490fd5b34610222576020366003190112610222576004356001600160a01b03811690819003610222575f525f60205260405f20604051610e3081611085565b610e398261114f565b8152610e476001830161114f565b6020820190815291610e5b6002820161114f565b60408301908152610e6e6003830161114f565b6060840190815290610e826004840161114f565b6080850190815290610e966005850161114f565b60a08601908152610ea96006860161114f565b60c0870190815290610ebd6007870161114f565b938460e089015260088701549661010097888a01526009015460ff1615159561012098878a82015251995194519051915192519351946040519a8a8c9b8c528b01610f0791611060565b8a810360208c0152610f1891611060565b89810360408b0152610f2991611060565b88810360608a0152610f3a91611060565b8781036080890152610f4b91611060565b86810360a0880152610f5c91611060565b85810360c0870152610f6d91611060565b84810360e0860152610f7e91611060565b918301520390f35b34610222575f3660031901126102225760019081549182825260208083018094835f527fb10e2d527612073b26eecdfd717e6a320cf44b4afac2b0732d9fcbe2b7fa0cf6905f5b8181106110235750505083610fe39103846110a1565b6040519281840190828552518091526040840194915f5b8281106110075785870386f35b83516001600160a01b0316875295810195928101928401610ffa565b82546001600160a01b0316845292840192918501918501610fcd565b5f5b8381106110505750505f910152565b8181015183820152602001611041565b906020916110798151809281855285808601910161103f565b601f01601f1916010190565b61014081019081106001600160401b038211176107cd57604052565b90601f801991011681019081106001600160401b038211176107cd57604052565b81601f82011215610222578035906001600160401b0382116107cd57604051926110f6601f8401601f1916602001856110a1565b8284526020838301011161022257815f926020809301838601378301015290565b90600182811c92168015611145575b602083101461113157565b634e487b7160e01b5f52602260045260245ffd5b91607f1691611126565b9060405191825f82549261116284611117565b9081845260019485811690815f146111cd575060011461118d575b505061118b925003836110a1565b565b909391505f52602090815f20935f915b8183106111b557505061118b93508201015f8061117d565b8554888401850152948501948794509183019161119d565b91505061118b94506020925060ff191682840152151560051b8201015f8061117d56fea2646970667358221220e30b162e3c75c976ba1087da2ca3afdf938b3e5fcd28f2719b2574023175e99b64736f6c63430008140033",
  "immutableReferences": {},
  "source": "// SPDX-License-Identifier: MIT\r\npragma solidity ^0.8.0;\r\n\r\ncontract HospitalRegistry {\r\n    struct Hospital {\r\n        string name;\r\n        string regNumber;\r\n        string hospitalType;\r\n        string addressInfo;\r\n        string email;\r\n        string phone;\r\n        string branch;\r\n        string website;\r\n        bytes32 passwordHash;\r\n        bool isRegistered;\r\n    }\r\n\r\n    mapping(address => Hospital) private hospitals;\r\n    address[] private hospitalAddresses;\r\n\r\n    event HospitalRegistered(address indexed hospitalAddress, string name);\r\n\r\n    function registerHospital(\r\n        string memory _name,\r\n        string memory _regNumber,\r\n        string memory _hospitalType,\r\n        string memory _addressInfo,\r\n        string memory _email,\r\n        string memory _phone,\r\n        string memory _branch,\r\n        string memory _website,\r\n        string memory _password\r\n    ) public {\r\n        require(\r\n            !hospitals[msg.sender].isRegistered,\r\n            \"Hospital already registered\"\r\n        );\r\n\r\n        hospitals[msg.sender] = Hospital({\r\n            name: _name,\r\n            regNumber: _regNumber,\r\n            hospitalType: _hospitalType,\r\n            addressInfo: _addressInfo,\r\n            email: _email,\r\n            phone: _phone,\r\n            branch: _branch,\r\n            website: _website,\r\n            passwordHash: keccak256(abi.encodePacked(_password)),\r\n            isRegistered: true\r\n        });\r\n\r\n        hospitalAddresses.push(msg.sender);\r\n        emit HospitalRegistered(msg.sender, _name);\r\n    }\r\n\r\n    function loginHospital(\r\n        string memory _email,\r\n        string memory _password\r\n    ) public view returns (bool) {\r\n        require(hospitals[msg.sender].isRegistered, \"Hospital not registered\");\r\n\r\n        bool emailMatches = keccak256(\r\n            abi.encodePacked(hospitals[msg.sender].email)\r\n        ) == keccak256(abi.encodePacked(_email));\r\n        bool passwordMatches = hospitals[msg.sender].passwordHash ==\r\n            keccak256(abi.encodePacked(_password));\r\n\r\n        return emailMatches && passwordMatches;\r\n    }\r\n\r\n    function getHospitalByAddress(\r\n        address _addr\r\n    )\r\n        public\r\n        view\r\n        returns (\r\n            string memory name,\r\n            string memory regNumber,\r\n            string memory hospitalType,\r\n            string memory addressInfo,\r\n            string memory email,\r\n            string memory phone,\r\n            string memory branch,\r\n            string memory website,\r\n            bool isRegistered\r\n        )\r\n    {\r\n        Hospital memory h = hospitals[_addr];\r\n        return (\r\n            h.name,\r\n            h.regNumber,\r\n            h.hospitalType,\r\n            h.addressInfo,\r\n            h.email,\r\n            h.phone,\r\n            h.branch,\r\n            h.website,\r\n            h.isRegistered\r\n        );\r\n    }\r\n\r\n    function isHospitalRegistered(address _addr) public view returns (bool) {\r\n        return hospitals[_addr].isRegistered;\r\n    }\r\n\r\n    function getAllHospitals() public view returns (address[] memory) {\r\n        return hospitalAddresses;\r\n    }\r\n}\r\n",
  "sourcePath": "C:\\Users\\Gayan\\Documents\\Medicrypt\\blockchain\\contracts\\HospitalRegistry.sol",
  "compiler": {
    "name": "solc",
    "version": "0.8.20+commit.a1b79de6.Emscripten.clang"
  },
  "schemaVersion": "3.4.16",
  "updatedAt": "2025-07-07T11:15:26.673Z",
  "networkType": "ethereum",
  "devdoc": {
    "kind": "dev",
    "methods": {},
    "version": 1
  },
  "userdoc": {
    "kind": "user",
    "methods": {},
    "version": 1
  }
}