{
  "contractName": "InsuranceRegistry",
  "abi": [
    {
      "anonymous": false,
      "inputs": [
        {
          "indexed": true,
          "internalType": "address",
          "name": "insuranceAddress",
          "type": "address"
        },
        {
          "indexed": false,
          "internalType": "string",
          "name": "insuranceName",
          "type": "string"
        }
      ],
      "name": "InsuranceRegistered",
      "type": "event"
    },
    {
      "inputs": [
        {
          "internalType": "string",
          "name": "_insuranceName",
          "type": "string"
        },
        {
          "internalType": "string",
          "name": "_title",
          "type": "string"
        },
        {
          "internalType": "string",
          "name": "_firstName",
          "type": "string"
        },
        {
          "internalType": "string",
          "name": "_lastName",
          "type": "string"
        },
        {
          "internalType": "string",
          "name": "_registrationNumber",
          "type": "string"
        },
        {
          "internalType": "string",
          "name": "_insuranceType",
          "type": "string"
        },
        {
          "internalType": "string",
          "name": "_addressInfo",
          "type": "string"
        },
        {
          "internalType": "string",
          "name": "_phone",
          "type": "string"
        },
        {
          "internalType": "string",
          "name": "_email",
          "type": "string"
        },
        {
          "internalType": "string",
          "name": "_branch",
          "type": "string"
        },
        {
          "internalType": "string",
          "name": "_insuranceCover",
          "type": "string"
        },
        {
          "internalType": "string",
          "name": "_password",
          "type": "string"
        }
      ],
      "name": "registerInsurance",
      "outputs": [],
      "stateMutability": "nonpayable",
      "type": "function"
    },
    {
      "inputs": [
        {
          "internalType": "string",
          "name": "_email",
          "type": "string"
        },
        {
          "internalType": "string",
          "name": "_password",
          "type": "string"
        }
      ],
      "name": "loginInsurance",
      "outputs": [
        {
          "internalType": "bool",
          "name": "",
          "type": "bool"
        }
      ],
      "stateMutability": "view",
      "type": "function",
      "constant": true
    },
    {
      "inputs": [
        {
          "internalType": "address",
          "name": "_addr",
          "type": "address"
        }
      ],
      "name": "getInsuranceByAddress",
      "outputs": [
        {
          "internalType": "string",
          "name": "",
          "type": "string"
        },
        {
          "internalType": "string",
          "name": "",
          "type": "string"
        },
        {
          "internalType": "string",
          "name": "",
          "type": "string"
        },
        {
          "internalType": "string",
          "name": "",
          "type": "string"
        },
        {
          "internalType": "string",
          "name": "",
          "type": "string"
        },
        {
          "internalType": "string",
          "name": "",
          "type": "string"
        },
        {
          "internalType": "string",
          "name": "",
          "type": "string"
        },
        {
          "internalType": "string",
          "name": "",
          "type": "string"
        },
        {
          "internalType": "string",
          "name": "",
          "type": "string"
        },
        {
          "internalType": "string",
          "name": "",
          "type": "string"
        },
        {
          "internalType": "string",
          "name": "",
          "type": "string"
        },
        {
          "internalType": "bool",
          "name": "",
          "type": "bool"
        }
      ],
      "stateMutability": "view",
      "type": "function",
      "constant": true
    },
    {
      "inputs": [
        {
          "internalType": "address",
          "name": "_addr",
          "type": "address"
        }
      ],
      "name": "isInsuranceRegistered",
      "outputs": [
        {
          "internalType": "bool",
          "name": "",
          "type": "bool"
        }
      ],
      "stateMutability": "view",
      "type": "function",
      "constant": true
    },
    {
      "inputs": [],
      "name": "getAllInsurances",
      "outputs": [
        {
          "internalType": "address[]",
          "name": "",
          "type": "address[]"
        }
      ],
      "stateMutability": "view",
      "type": "function",
      "constant": true
    }
  ],
  "bytecode": "0x608080604052346100165761166c908161001b8239f35b5f80fdfe6080806040526004361015610012575f80fd5b5f3560e01c90816311165ee7146113cc57508063573d28151461120a5780635ba0502414610ff05780636450b2261461009a5763ea5caef314610053575f80fd5b34610096576020366003190112610096576004356001600160a01b03811690819003610096575f525f602052602060ff600c60405f200154166040519015158152f35b5f80fd5b3461009657610180366003190112610096576004356001600160401b038111610096576100cb9036906004016114c2565b6024356001600160401b038111610096576100ea9036906004016114c2565b906044356001600160401b0381116100965761010a9036906004016114c2565b6064356001600160401b038111610096576101299036906004016114c2565b6084356001600160401b038111610096576101489036906004016114c2565b60a4356001600160401b038111610096576101679036906004016114c2565b60c4356001600160401b038111610096576101869036906004016114c2565b60e4356001600160401b038111610096576101a59036906004016114c2565b90610104356001600160401b038111610096576101c69036906004016114c2565b92610124356001600160401b038111610096576101e79036906004016114c2565b946001600160401b0361014435116100965761020936610144356004016114c2565b966001600160401b0361016435116100965761022b36610164356004016114c2565b335f525f60205260ff600c60405f20015416610fab5760405161026b6020828161025e8183019687815193849201611517565b81010380845201826114a1565b519020986040519b61027c8d611485565b8b8d5260208d015260408c015260608b015260808a015260a089015260c088015260e08701526101008601526101208501526101408401526101608301526001610180830152335f525f60205260405f209180519283516001600160401b03811161079b576102eb825461155d565b601f8111610f6a575b506020601f8211600114610f055781929394955f92610efa575b50508160011b915f199060031b1c19161781555b60208201519283516001600160401b03811161079b57610345600184015461155d565b601f8111610eb6575b506020601f8211600114610e4b5781929394955f92610e40575b50508160011b915f199060031b1c19161760018301555b60408301519283516001600160401b03811161079b576103a2600285015461155d565b601f8111610dfc575b506020601f8211600114610d915781929394955f92610d86575b50508160011b915f199060031b1c19161760028401555b60608101519283516001600160401b03811161079b576103ff600383015461155d565b601f8111610d42575b506020601f8211600114610cd75781929394955f92610ccc575b50508160011b915f199060031b1c19161760038201555b60808201519283516001600160401b03811161079b5761045c600484015461155d565b601f8111610c88575b506020601f8211600114610c1d5781929394955f92610c12575b50508160011b915f199060031b1c19161760048301555b60a08301519283516001600160401b03811161079b576104b9600585015461155d565b601f8111610bce575b506020601f8211600114610b635781929394955f92610b58575b50508160011b915f199060031b1c19161760058401555b60c08101519283516001600160401b03811161079b57610516600683015461155d565b601f8111610b14575b506020601f8211600114610aa95781929394955f92610a9e575b50508160011b915f199060031b1c19161760068201555b60e08201519283516001600160401b03811161079b57610573600784015461155d565b601f8111610a5a575b506020601f82116001146109ef5781929394955f926109e4575b50508160011b915f199060031b1c19161760078301555b6101008301519283516001600160401b03811161079b576105d1600885015461155d565b601f81116109a0575b506020601f82116001146109355781929394955f9261092a575b50508160011b915f199060031b1c19161760088401555b6101208101519283516001600160401b03811161079b5761062f600983015461155d565b601f81116108e6575b506020601f821160011461087b5781929394955f92610870575b50508160011b915f199060031b1c19161760098201555b6101408201518051906001600160401b03821161079b5761068d600a84015461155d565b601f811161082c575b50602090601f83116001146107ba5791806101809492600c945f926107af575b50508160011b915f199060031b1c191617600a8201555b610160840151600b82015501910151151560ff801983541691161790556001546801000000000000000081101561079b5760018101806001558110156107875760015f527fb10e2d527612073b26eecdfd717e6a320cf44b4afac2b0732d9fcbe2b7fa0cf601336bffffffffffffffffffffffff60a01b8254161790557fda30804e440a92bfab0e01708eb7c5a6a571d1b8ba9366a8f78b0f3c725f3928604051602081528061078233946020830190611538565b0390a2005b634e487b7160e01b5f52603260045260245ffd5b634e487b7160e01b5f52604160045260245ffd5b0151905087806106b6565b90600a84015f5260205f20915f5b601f19851681106108145750926101809492600192600c9583601f198116106107fc575b505050811b01600a8201556106cd565b01515f1960f88460031b161c191690558780806107ec565b919260206001819286850151815501940192016107c8565b600a84015f5260205f20601f840160051c810160208510610869575b601f830160051c8201811061085e575050610696565b5f8155600101610848565b5080610848565b015190508580610652565b600983015f5260205f20905f5b601f19841681106108ce575060019394959683601f198116106108b6575b505050811b016009820155610669565b01515f1960f88460031b161c191690558580806108a6565b9091602060018192858b015181550193019101610888565b600983015f5260205f20601f830160051c810160208410610923575b601f830160051c82018110610918575050610638565b5f8155600101610902565b5080610902565b0151905085806105f4565b600885015f5260205f20905f5b601f1984168110610988575060019394959683601f19811610610970575b505050811b01600884015561060b565b01515f1960f88460031b161c19169055858080610960565b9091602060018192858b015181550193019101610942565b600885015f5260205f20601f830160051c8101602084106109dd575b601f830160051c820181106109d25750506105da565b5f81556001016109bc565b50806109bc565b015190508580610596565b600784015f5260205f20905f5b601f1984168110610a42575060019394959683601f19811610610a2a575b505050811b0160078301556105ad565b01515f1960f88460031b161c19169055858080610a1a565b9091602060018192858b0151815501930191016109fc565b600784015f5260205f20601f830160051c810160208410610a97575b601f830160051c82018110610a8c57505061057c565b5f8155600101610a76565b5080610a76565b015190508580610539565b600683015f5260205f20905f5b601f1984168110610afc575060019394959683601f19811610610ae4575b505050811b016006820155610550565b01515f1960f88460031b161c19169055858080610ad4565b9091602060018192858b015181550193019101610ab6565b600683015f5260205f20601f830160051c810160208410610b51575b601f830160051c82018110610b4657505061051f565b5f8155600101610b30565b5080610b30565b0151905085806104dc565b600585015f5260205f20905f5b601f1984168110610bb6575060019394959683601f19811610610b9e575b505050811b0160058401556104f3565b01515f1960f88460031b161c19169055858080610b8e565b9091602060018192858b015181550193019101610b70565b600585015f5260205f20601f830160051c810160208410610c0b575b601f830160051c82018110610c005750506104c2565b5f8155600101610bea565b5080610bea565b01519050858061047f565b600484015f5260205f20905f5b601f1984168110610c70575060019394959683601f19811610610c58575b505050811b016004830155610496565b01515f1960f88460031b161c19169055858080610c48565b9091602060018192858b015181550193019101610c2a565b600484015f5260205f20601f830160051c810160208410610cc5575b601f830160051c82018110610cba575050610465565b5f8155600101610ca4565b5080610ca4565b015190508580610422565b600383015f5260205f20905f5b601f1984168110610d2a575060019394959683601f19811610610d12575b505050811b016003820155610439565b01515f1960f88460031b161c19169055858080610d02565b9091602060018192858b015181550193019101610ce4565b600383015f5260205f20601f830160051c810160208410610d7f575b601f830160051c82018110610d74575050610408565b5f8155600101610d5e565b5080610d5e565b0151905085806103c5565b600285015f5260205f20905f5b601f1984168110610de4575060019394959683601f19811610610dcc575b505050811b0160028401556103dc565b01515f1960f88460031b161c19169055858080610dbc565b9091602060018192858b015181550193019101610d9e565b600285015f5260205f20601f830160051c810160208410610e39575b601f830160051c82018110610e2e5750506103ab565b5f8155600101610e18565b5080610e18565b015190508580610368565b600184015f5260205f20905f5b601f1984168110610e9e575060019394959683601f19811610610e86575b505050811b01600183015561037f565b01515f1960f88460031b161c19169055858080610e76565b9091602060018192858b015181550193019101610e58565b600184015f5260205f20601f830160051c810160208410610ef3575b601f830160051c82018110610ee857505061034e565b5f8155600101610ed2565b5080610ed2565b01519050858061030e565b825f5260205f20905f5b601f1984168110610f52575060019394959683601f19811610610f3a575b505050811b018155610322565b01515f1960f88460031b161c19169055858080610f2d565b9091602060018192858b015181550193019101610f0f565b825f5260205f20601f830160051c810160208410610fa4575b601f830160051c82018110610f995750506102f4565b5f8155600101610f83565b5080610f83565b60405162461bcd60e51b815260206004820152601c60248201527f496e737572616e636520616c72656164792072656769737465726564000000006044820152606490fd5b34610096576020366003190112610096576004356001600160a01b03811690819003610096575f525f60205260405f206040519061102d82611485565b61103681611595565b825261104460018201611595565b602083019081529061105860028201611595565b604084015261106960038201611595565b606084015261107a60048201611595565b608084015261108b60058201611595565b60a084015261109c60068201611595565b60c08401526110ad60078201611595565b60e08401526110be60088201611595565b6101008401526110d060098201611595565b6101208401526110e2600a8201611595565b9081610140850152600b810154610160850152600c015460ff161515908161018085015283519251936040810151906060810151608082015160a083015160c08401519160e085015193610100860151956101200151966040519b8c9b6101808d526101808d0161115291611538565b8c810360208e015261116391611538565b8b810360408d015261117491611538565b8a810360608c015261118591611538565b89810360808b015261119691611538565b88810360a08a01526111a791611538565b87810360c08901526111b891611538565b86810360e08801526111c991611538565b8581036101008701526111db91611538565b8481036101208601526111ed91611538565b8381036101408501526111ff91611538565b906101608301520390f35b34610096576040366003190112610096576001600160401b036004358181116100965761123b9036906004016114c2565b90602435908111610096576112549036906004016114c2565b335f526020915f835260ff600c60405f200154161561138757335f525f8352600860405f20016040518481818101935f9080546112908161155d565b91600191808316908115611367575060011461132a575b5050506112bd925003601f1981018352826114a1565b519020906040516112dd85828161025e8183019687815193849201611517565b5190201490335f525f8352600b60405f2001549060405161130d85828161025e8183019687815193849201611517565b5190201481611322575b506040519015158152f35b905082611317565b5f908152858120929350915b83831061135157505050916112bd92820101879289806112a7565b8054878401870152869450918501918101611336565b925050506112bd94925060ff1916865280151502820101879289806112a7565b60405162461bcd60e51b815260048101849052601860248201527f496e737572616e6365206e6f74207265676973746572656400000000000000006044820152606490fd5b34610096575f3660031901126100965760019081549182825260208083018094835f527fb10e2d527612073b26eecdfd717e6a320cf44b4afac2b0732d9fcbe2b7fa0cf6905f5b81811061146957505050836114299103846114a1565b6040519281840190828552518091526040840194915f5b82811061144d5785870386f35b83516001600160a01b0316875295810195928101928401611440565b82546001600160a01b0316845292840192918501918501611413565b6101a081019081106001600160401b0382111761079b57604052565b90601f801991011681019081106001600160401b0382111761079b57604052565b81601f82011215610096578035906001600160401b03821161079b57604051926114f6601f8401601f1916602001856114a1565b8284526020838301011161009657815f926020809301838601378301015290565b5f5b8381106115285750505f910152565b8181015183820152602001611519565b9060209161155181518092818552858086019101611517565b601f01601f1916010190565b90600182811c9216801561158b575b602083101461157757565b634e487b7160e01b5f52602260045260245ffd5b91607f169161156c565b9060405191825f8254926115a88461155d565b9081845260019485811690815f1461161357506001146115d3575b50506115d1925003836114a1565b565b909391505f52602090815f20935f915b8183106115fb5750506115d193508201015f806115c3565b855488840185015294850194879450918301916115e3565b9150506115d194506020925060ff191682840152151560051b8201015f806115c356fea2646970667358221220f8a01a12a5a27f02dbd457ff6345969a49cb3a1327312c20fa990b4f6116fe6164736f6c63430008140033",
  "immutableReferences": {},
  "source": "// SPDX-License-Identifier: MIT\r\npragma solidity ^0.8.0;\r\n\r\ncontract InsuranceRegistry {\r\n    struct InsuranceProvider {\r\n        string insuranceName;\r\n        string title;\r\n        string firstName;\r\n        string lastName;\r\n        string registrationNumber;\r\n        string insuranceType;\r\n        string addressInfo;\r\n        string phone;\r\n        string email;\r\n        string branch;\r\n        string insuranceCover;\r\n        bytes32 passwordHash;\r\n        bool isRegistered;\r\n    }\r\n\r\n    mapping(address => InsuranceProvider) private providers;\r\n    address[] private providerAddresses;\r\n\r\n    event InsuranceRegistered(\r\n        address indexed insuranceAddress,\r\n        string insuranceName\r\n    );\r\n\r\n    function registerInsurance(\r\n        string memory _insuranceName,\r\n        string memory _title,\r\n        string memory _firstName,\r\n        string memory _lastName,\r\n        string memory _registrationNumber,\r\n        string memory _insuranceType,\r\n        string memory _addressInfo,\r\n        string memory _phone,\r\n        string memory _email,\r\n        string memory _branch,\r\n        string memory _insuranceCover,\r\n        string memory _password\r\n    ) public {\r\n        require(\r\n            !providers[msg.sender].isRegistered,\r\n            \"Insurance already registered\"\r\n        );\r\n\r\n        providers[msg.sender] = InsuranceProvider({\r\n            insuranceName: _insuranceName,\r\n            title: _title,\r\n            firstName: _firstName,\r\n            lastName: _lastName,\r\n            registrationNumber: _registrationNumber,\r\n            insuranceType: _insuranceType,\r\n            addressInfo: _addressInfo,\r\n            phone: _phone,\r\n            email: _email,\r\n            branch: _branch,\r\n            insuranceCover: _insuranceCover,\r\n            passwordHash: keccak256(abi.encodePacked(_password)),\r\n            isRegistered: true\r\n        });\r\n\r\n        providerAddresses.push(msg.sender);\r\n        emit InsuranceRegistered(msg.sender, _insuranceName);\r\n    }\r\n\r\n    function loginInsurance(\r\n        string memory _email,\r\n        string memory _password\r\n    ) public view returns (bool) {\r\n        require(providers[msg.sender].isRegistered, \"Insurance not registered\");\r\n\r\n        bool emailMatches = keccak256(\r\n            abi.encodePacked(providers[msg.sender].email)\r\n        ) == keccak256(abi.encodePacked(_email));\r\n        bool passwordMatches = providers[msg.sender].passwordHash ==\r\n            keccak256(abi.encodePacked(_password));\r\n\r\n        return emailMatches && passwordMatches;\r\n    }\r\n\r\n    function getInsuranceByAddress(\r\n        address _addr\r\n    )\r\n        public\r\n        view\r\n        returns (\r\n            string memory,\r\n            string memory,\r\n            string memory,\r\n            string memory,\r\n            string memory,\r\n            string memory,\r\n            string memory,\r\n            string memory,\r\n            string memory,\r\n            string memory,\r\n            string memory,\r\n            bool\r\n        )\r\n    {\r\n        InsuranceProvider memory i = providers[_addr];\r\n        return (\r\n            i.insuranceName,\r\n            i.title,\r\n            i.firstName,\r\n            i.lastName,\r\n            i.registrationNumber,\r\n            i.insuranceType,\r\n            i.addressInfo,\r\n            i.phone,\r\n            i.email,\r\n            i.branch,\r\n            i.insuranceCover,\r\n            i.isRegistered\r\n        );\r\n    }\r\n\r\n    function isInsuranceRegistered(address _addr) public view returns (bool) {\r\n        return providers[_addr].isRegistered;\r\n    }\r\n\r\n    function getAllInsurances() public view returns (address[] memory) {\r\n        return providerAddresses;\r\n    }\r\n}\r\n",
  "sourcePath": "C:\\Users\\Gayan\\Documents\\Medicrypt\\blockchain\\contracts\\InsuranceRegistry.sol",
  "compiler": {
    "name": "solc",
    "version": "0.8.20+commit.a1b79de6.Emscripten.clang"
  },
  "schemaVersion": "3.4.16",
  "updatedAt": "2025-07-07T11:15:26.681Z",
  "networkType": "ethereum",
  "devdoc": {
    "kind": "dev",
    "methods": {},
    "version": 1
  },
  "userdoc": {
    "kind": "user",
    "methods": {},
    "version": 1
  }
}