{
  "contractName": "LaboratoryRegistry",
  "abi": [
    {
      "anonymous": false,
      "inputs": [
        {
          "indexed": true,
          "internalType": "address",
          "name": "labAddress",
          "type": "address"
        },
        {
          "indexed": false,
          "internalType": "string",
          "name": "labName",
          "type": "string"
        }
      ],
      "name": "LaboratoryRegistered",
      "type": "event"
    },
    {
      "inputs": [
        {
          "internalType": "string",
          "name": "_photo",
          "type": "string"
        },
        {
          "internalType": "string",
          "name": "_labName",
          "type": "string"
        },
        {
          "internalType": "string",
          "name": "_title",
          "type": "string"
        },
        {
          "internalType": "string",
          "name": "_firstName",
          "type": "string"
        },
        {
          "internalType": "string",
          "name": "_lastName",
          "type": "string"
        },
        {
          "internalType": "string",
          "name": "_registrationNumber",
          "type": "string"
        },
        {
          "internalType": "string",
          "name": "_referredHospital",
          "type": "string"
        },
        {
          "internalType": "string",
          "name": "_addressInfo",
          "type": "string"
        },
        {
          "internalType": "string",
          "name": "_email",
          "type": "string"
        },
        {
          "internalType": "string",
          "name": "_phone",
          "type": "string"
        },
        {
          "internalType": "string",
          "name": "_branch",
          "type": "string"
        },
        {
          "internalType": "string",
          "name": "_website",
          "type": "string"
        },
        {
          "internalType": "string",
          "name": "_password",
          "type": "string"
        }
      ],
      "name": "registerLaboratory",
      "outputs": [],
      "stateMutability": "nonpayable",
      "type": "function"
    },
    {
      "inputs": [
        {
          "internalType": "string",
          "name": "_email",
          "type": "string"
        },
        {
          "internalType": "string",
          "name": "_password",
          "type": "string"
        }
      ],
      "name": "loginLaboratory",
      "outputs": [
        {
          "internalType": "bool",
          "name": "",
          "type": "bool"
        }
      ],
      "stateMutability": "view",
      "type": "function",
      "constant": true
    },
    {
      "inputs": [
        {
          "internalType": "address",
          "name": "_addr",
          "type": "address"
        }
      ],
      "name": "getLaboratoryByAddress",
      "outputs": [
        {
          "internalType": "string",
          "name": "",
          "type": "string"
        },
        {
          "internalType": "string",
          "name": "",
          "type": "string"
        },
        {
          "internalType": "string",
          "name": "",
          "type": "string"
        },
        {
          "internalType": "string",
          "name": "",
          "type": "string"
        },
        {
          "internalType": "string",
          "name": "",
          "type": "string"
        },
        {
          "internalType": "string",
          "name": "",
          "type": "string"
        },
        {
          "internalType": "string",
          "name": "",
          "type": "string"
        },
        {
          "internalType": "string",
          "name": "",
          "type": "string"
        },
        {
          "internalType": "string",
          "name": "",
          "type": "string"
        },
        {
          "internalType": "string",
          "name": "",
          "type": "string"
        },
        {
          "internalType": "string",
          "name": "",
          "type": "string"
        },
        {
          "internalType": "string",
          "name": "",
          "type": "string"
        },
        {
          "internalType": "bool",
          "name": "",
          "type": "bool"
        }
      ],
      "stateMutability": "view",
      "type": "function",
      "constant": true
    },
    {
      "inputs": [
        {
          "internalType": "address",
          "name": "_addr",
          "type": "address"
        }
      ],
      "name": "isLaboratoryRegistered",
      "outputs": [
        {
          "internalType": "bool",
          "name": "",
          "type": "bool"
        }
      ],
      "stateMutability": "view",
      "type": "function",
      "constant": true
    },
    {
      "inputs": [],
      "name": "getAllLaboratories",
      "outputs": [
        {
          "internalType": "address[]",
          "name": "",
          "type": "address[]"
        }
      ],
      "stateMutability": "view",
      "type": "function",
      "constant": true
    }
  ],
  "bytecode": "0x60808060405234610016576117c3908161001b8239f35b5f80fdfe6080806040526004361015610012575f80fd5b5f3560e01c90816350ef3d711461159c5750806368825f12146113575780639214a681146102d7578063a62b17d21461021b5763d06a799d14610053575f80fd5b34610217576040366003190112610217576001600160401b036004358181116102175761008490369060040161165f565b906024359081116102175761009d90369060040161165f565b335f526020915f835260ff600d60405f20015416156101dd57335f525f8352600860405f20016040518481818101935f9080546100d9816116b4565b916001918083169081156101bd5750600114610180575b505050610106925003601f19810183528261163e565b5190209060405161013385828161012681830196878151938492016115dc565b810103808452018261163e565b5190201490335f525f8352600c60405f2001549060405161016385828161012681830196878151938492016115dc565b5190201481610178575b506040519015158152f35b90505f61016d565b5f908152858120929350915b8383106101a757505050916101069282010187925f806100f0565b805487840187015286945091850191810161018c565b9250505061010694925060ff191686528015150282010187925f806100f0565b60405162461bcd60e51b8152600481018490526012602482015271131858881b9bdd081c9959da5cdd195c995960721b6044820152606490fd5b5f80fd5b34610217575f3660031901126102175760405180600180549283815260208091018094835f527fb10e2d527612073b26eecdfd717e6a320cf44b4afac2b0732d9fcbe2b7fa0cf6905f5b8181106102bb575050508361027b91038461163e565b6040519281840190828552518091526040840194915f5b82811061029f5785870386f35b83516001600160a01b0316875295810195928101928401610292565b82546001600160a01b0316845292840192918501918501610265565b34610217576101a0366003190112610217576004356001600160401b0381116102175761030890369060040161165f565b6024356001600160401b0381116102175761032790369060040161165f565b6044356001600160401b0381116102175761034690369060040161165f565b6064356001600160401b0381116102175761036590369060040161165f565b6084356001600160401b0381116102175761038490369060040161165f565b60a4356001600160401b038111610217576103a390369060040161165f565b60c4356001600160401b038111610217576103c290369060040161165f565b60e4356001600160401b038111610217576103e190369060040161165f565b610104356001600160401b0381116102175761040190369060040161165f565b91610124356001600160401b0381116102175761042290369060040161165f565b936001600160401b03610144351161021757610444366101443560040161165f565b956001600160401b03610164351161021757610466366101643560040161165f565b97610184356001600160401b0381116102175761048790369060040161165f565b335f525f60205260ff600d60405f20015416611319576040516104ba6020828161012681830196878151938492016115dc565b519020998b60206040519e8f906104d082611622565b8152015260408d015260608c015260808b015260a08a015260c089015260e088015261010087015261012086015261014085015261016084015261018083015260016101a0830152335f525f60205260405f209082519283516001600160401b038111610a4f5761054184546116b4565b601f81116112d8575b506020601f82116001146112735781929394955f92611268575b50508160011b915f199060031b1c19161783555b60208101519283516001600160401b038111610a4f5761059b60018301546116b4565b601f8111611224575b506020601f82116001146111b95781929394955f926111ae575b50508160011b915f199060031b1c19161760018201555b60408201519283516001600160401b038111610a4f576105f860028401546116b4565b601f811161116a575b506020601f82116001146110ff5781929394955f926110f4575b50508160011b915f199060031b1c19161760028301555b60608301519283516001600160401b038111610a4f5761065560038501546116b4565b601f81116110b0575b506020601f82116001146110455781929394955f9261103a575b50508160011b915f199060031b1c19161760038401555b60808101519283516001600160401b038111610a4f576106b260048301546116b4565b601f8111610ff6575b506020601f8211600114610f8b5781929394955f92610f80575b50508160011b915f199060031b1c19161760048201555b60a08201519283516001600160401b038111610a4f5761070f60058401546116b4565b601f8111610f3c575b506020601f8211600114610ed15781929394955f92610ec6575b50508160011b915f199060031b1c19161760058301555b60c08301519283516001600160401b038111610a4f5761076c60068501546116b4565b601f8111610e82575b506020601f8211600114610e175781929394955f92610e0c575b50508160011b915f199060031b1c19161760068401555b60e08101519283516001600160401b038111610a4f576107c960078301546116b4565b601f8111610dc8575b506020601f8211600114610d5d5781929394955f92610d52575b50508160011b915f199060031b1c19161760078201555b6101008201519283516001600160401b038111610a4f5761082760088401546116b4565b601f8111610d0e575b506020601f8211600114610ca35781929394955f92610c98575b50508160011b915f199060031b1c19161760088301555b6101208301519283516001600160401b038111610a4f5761088560098501546116b4565b601f8111610c54575b506020601f8211600114610be95781929394955f92610bde575b50508160011b915f199060031b1c19161760098401555b6101408101519283516001600160401b038111610a4f576108e3600a8301546116b4565b601f8111610b9a575b506020601f8211600114610b2f5781929394955f92610b24575b50508160011b915f199060031b1c191617600a8201555b6101608201518051906001600160401b038211610a4f57610941600b8401546116b4565b601f8111610ae0575b50602090601f8311600114610a6e5791806101a09492600d945f92610a63575b50508160011b915f199060031b1c191617600b8201555b610180840151600c82015501910151151560ff8019835416911617905560015468010000000000000000811015610a4f576001810180600155811015610a3b5760015f527fb10e2d527612073b26eecdfd717e6a320cf44b4afac2b0732d9fcbe2b7fa0cf601336bffffffffffffffffffffffff60a01b8254161790557f528cd8c106b8920cc72396256a2d66cf122e662269dad33bbaace2358e4703e26040516020815280610a36339460208301906115fd565b0390a2005b634e487b7160e01b5f52603260045260245ffd5b634e487b7160e01b5f52604160045260245ffd5b01519050878061096a565b90600b84015f5260205f20915f5b601f1985168110610ac85750926101a09492600192600d9583601f19811610610ab0575b505050811b01600b820155610981565b01515f1960f88460031b161c19169055878080610aa0565b91926020600181928685015181550194019201610a7c565b600b84015f5260205f20601f840160051c810160208510610b1d575b601f830160051c82018110610b1257505061094a565b5f8155600101610afc565b5080610afc565b015190508580610906565b600a83015f5260205f20905f5b601f1984168110610b82575060019394959683601f19811610610b6a575b505050811b01600a82015561091d565b01515f1960f88460031b161c19169055858080610b5a565b9091602060018192858b015181550193019101610b3c565b600a83015f5260205f20601f830160051c810160208410610bd7575b601f830160051c82018110610bcc5750506108ec565b5f8155600101610bb6565b5080610bb6565b0151905085806108a8565b600985015f5260205f20905f5b601f1984168110610c3c575060019394959683601f19811610610c24575b505050811b0160098401556108bf565b01515f1960f88460031b161c19169055858080610c14565b9091602060018192858b015181550193019101610bf6565b600985015f5260205f20601f830160051c810160208410610c91575b601f830160051c82018110610c8657505061088e565b5f8155600101610c70565b5080610c70565b01519050858061084a565b600884015f5260205f20905f5b601f1984168110610cf6575060019394959683601f19811610610cde575b505050811b016008830155610861565b01515f1960f88460031b161c19169055858080610cce565b9091602060018192858b015181550193019101610cb0565b600884015f5260205f20601f830160051c810160208410610d4b575b601f830160051c82018110610d40575050610830565b5f8155600101610d2a565b5080610d2a565b0151905085806107ec565b600783015f5260205f20905f5b601f1984168110610db0575060019394959683601f19811610610d98575b505050811b016007820155610803565b01515f1960f88460031b161c19169055858080610d88565b9091602060018192858b015181550193019101610d6a565b600783015f5260205f20601f830160051c810160208410610e05575b601f830160051c82018110610dfa5750506107d2565b5f8155600101610de4565b5080610de4565b01519050858061078f565b600685015f5260205f20905f5b601f1984168110610e6a575060019394959683601f19811610610e52575b505050811b0160068401556107a6565b01515f1960f88460031b161c19169055858080610e42565b9091602060018192858b015181550193019101610e24565b600685015f5260205f20601f830160051c810160208410610ebf575b601f830160051c82018110610eb4575050610775565b5f8155600101610e9e565b5080610e9e565b015190508580610732565b600584015f5260205f20905f5b601f1984168110610f24575060019394959683601f19811610610f0c575b505050811b016005830155610749565b01515f1960f88460031b161c19169055858080610efc565b9091602060018192858b015181550193019101610ede565b600584015f5260205f20601f830160051c810160208410610f79575b601f830160051c82018110610f6e575050610718565b5f8155600101610f58565b5080610f58565b0151905085806106d5565b600483015f5260205f20905f5b601f1984168110610fde575060019394959683601f19811610610fc6575b505050811b0160048201556106ec565b01515f1960f88460031b161c19169055858080610fb6565b9091602060018192858b015181550193019101610f98565b600483015f5260205f20601f830160051c810160208410611033575b601f830160051c820181106110285750506106bb565b5f8155600101611012565b5080611012565b015190508580610678565b600385015f5260205f20905f5b601f1984168110611098575060019394959683601f19811610611080575b505050811b01600384015561068f565b01515f1960f88460031b161c19169055858080611070565b9091602060018192858b015181550193019101611052565b600385015f5260205f20601f830160051c8101602084106110ed575b601f830160051c820181106110e257505061065e565b5f81556001016110cc565b50806110cc565b01519050858061061b565b600284015f5260205f20905f5b601f1984168110611152575060019394959683601f1981161061113a575b505050811b016002830155610632565b01515f1960f88460031b161c1916905585808061112a565b9091602060018192858b01518155019301910161110c565b600284015f5260205f20601f830160051c8101602084106111a7575b601f830160051c8201811061119c575050610601565b5f8155600101611186565b5080611186565b0151905085806105be565b600183015f5260205f20905f5b601f198416811061120c575060019394959683601f198116106111f4575b505050811b0160018201556105d5565b01515f1960f88460031b161c191690558580806111e4565b9091602060018192858b0151815501930191016111c6565b600183015f5260205f20601f830160051c810160208410611261575b601f830160051c820181106112565750506105a4565b5f8155600101611240565b5080611240565b015190508580610564565b845f5260205f20905f5b601f19841681106112c0575060019394959683601f198116106112a8575b505050811b018355610578565b01515f1960f88460031b161c1916905585808061129b565b9091602060018192858b01518155019301910161127d565b845f5260205f20601f830160051c810160208410611312575b601f830160051c8201811061130757505061054a565b5f81556001016112f1565b50806112f1565b60405162461bcd60e51b815260206004820152601660248201527513185888185b1c9958591e481c9959da5cdd195c995960521b6044820152606490fd5b34610217576020366003190112610217576004356001600160a01b03811690819003610217575f525f60205260405f206040519061139482611622565b61139d816116ec565b82526113ab600182016116ec565b60208301526113bc600282016116ec565b60408301526113cd600382016116ec565b60608301526113de600482016116ec565b60808301526113ef600582016116ec565b60a0830152611400600682016116ec565b60c0830152611411600782016116ec565b60e0830152611422600882016116ec565b610100830152611434600982016116ec565b610120830152611446600a82016116ec565b610140830152611458600b82016116ec565b9081610160840152600c810154610180840152600d015460ff161515806101a08401528251916020840151936040810151906060810151608082015160a083015160c08401519060e08501519261010086015194610120870151966101400151976040519c8d9c8d6101a081526101a0016114d2916115fd565b8d810360208f01526114e3916115fd565b8c810360408e01526114f4916115fd565b8b810360608d0152611505916115fd565b8a810360808c0152611516916115fd565b89810360a08b0152611527916115fd565b88810360c08a0152611538916115fd565b87810360e0890152611549916115fd565b86810361010088015261155b916115fd565b85810361012087015261156d916115fd565b84810361014086015261157f916115fd565b838103610160850152611591916115fd565b906101808301520390f35b34610217576020366003190112610217576004356001600160a01b0381169190829003610217576020915f525f825260ff600d60405f2001541615158152f35b5f5b8381106115ed5750505f910152565b81810151838201526020016115de565b90602091611616815180928185528580860191016115dc565b601f01601f1916010190565b6101c081019081106001600160401b03821117610a4f57604052565b90601f801991011681019081106001600160401b03821117610a4f57604052565b81601f82011215610217578035906001600160401b038211610a4f5760405192611693601f8401601f19166020018561163e565b8284526020838301011161021757815f926020809301838601378301015290565b90600182811c921680156116e2575b60208310146116ce57565b634e487b7160e01b5f52602260045260245ffd5b91607f16916116c3565b9060405191825f8254926116ff846116b4565b9081845260019485811690815f1461176a575060011461172a575b50506117289250038361163e565b565b909391505f52602090815f20935f915b81831061175257505061172893508201015f8061171a565b8554888401850152948501948794509183019161173a565b91505061172894506020925060ff191682840152151560051b8201015f8061171a56fea26469706673582212201acd06642518ec98d4cddd79615168acc426a2550f2aad474b68387f565ded4464736f6c63430008140033",
  "immutableReferences": {},
  "source": "// SPDX-License-Identifier: MIT\r\npragma solidity ^0.8.0;\r\n\r\ncontract LaboratoryRegistry {\r\n    struct Laboratory {\r\n        string photo;\r\n        string labName;\r\n        string title;\r\n        string firstName;\r\n        string lastName;\r\n        string registrationNumber;\r\n        string referredHospital;\r\n        string addressInfo;\r\n        string email;\r\n        string phone;\r\n        string branch;\r\n        string website;\r\n        bytes32 passwordHash;\r\n        bool isRegistered;\r\n    }\r\n\r\n    mapping(address => Laboratory) private laboratories;\r\n    address[] private laboratoryAddresses;\r\n\r\n    event LaboratoryRegistered(address indexed labAddress, string labName);\r\n\r\n    function registerLaboratory(\r\n        string memory _photo,\r\n        string memory _labName,\r\n        string memory _title,\r\n        string memory _firstName,\r\n        string memory _lastName,\r\n        string memory _registrationNumber,\r\n        string memory _referredHospital,\r\n        string memory _addressInfo,\r\n        string memory _email,\r\n        string memory _phone,\r\n        string memory _branch,\r\n        string memory _website,\r\n        string memory _password\r\n    ) public {\r\n        require(\r\n            !laboratories[msg.sender].isRegistered,\r\n            \"Lab already registered\"\r\n        );\r\n\r\n        laboratories[msg.sender] = Laboratory({\r\n            photo: _photo,\r\n            labName: _labName,\r\n            title: _title,\r\n            firstName: _firstName,\r\n            lastName: _lastName,\r\n            registrationNumber: _registrationNumber,\r\n            referredHospital: _referredHospital,\r\n            addressInfo: _addressInfo,\r\n            email: _email,\r\n            phone: _phone,\r\n            branch: _branch,\r\n            website: _website,\r\n            passwordHash: keccak256(abi.encodePacked(_password)),\r\n            isRegistered: true\r\n        });\r\n\r\n        laboratoryAddresses.push(msg.sender);\r\n        emit LaboratoryRegistered(msg.sender, _labName);\r\n    }\r\n\r\n    function loginLaboratory(\r\n        string memory _email,\r\n        string memory _password\r\n    ) public view returns (bool) {\r\n        require(laboratories[msg.sender].isRegistered, \"Lab not registered\");\r\n\r\n        bool emailMatches = keccak256(\r\n            abi.encodePacked(laboratories[msg.sender].email)\r\n        ) == keccak256(abi.encodePacked(_email));\r\n        bool passwordMatches = laboratories[msg.sender].passwordHash ==\r\n            keccak256(abi.encodePacked(_password));\r\n\r\n        return emailMatches && passwordMatches;\r\n    }\r\n\r\n    function getLaboratoryByAddress(\r\n        address _addr\r\n    )\r\n        public\r\n        view\r\n        returns (\r\n            string memory,\r\n            string memory,\r\n            string memory,\r\n            string memory,\r\n            string memory,\r\n            string memory,\r\n            string memory,\r\n            string memory,\r\n            string memory,\r\n            string memory,\r\n            string memory,\r\n            string memory,\r\n            bool\r\n        )\r\n    {\r\n        Laboratory memory l = laboratories[_addr];\r\n        return (\r\n            l.photo,\r\n            l.labName,\r\n            l.title,\r\n            l.firstName,\r\n            l.lastName,\r\n            l.registrationNumber,\r\n            l.referredHospital,\r\n            l.addressInfo,\r\n            l.email,\r\n            l.phone,\r\n            l.branch,\r\n            l.website,\r\n            l.isRegistered\r\n        );\r\n    }\r\n\r\n    function isLaboratoryRegistered(address _addr) public view returns (bool) {\r\n        return laboratories[_addr].isRegistered;\r\n    }\r\n\r\n    function getAllLaboratories() public view returns (address[] memory) {\r\n        return laboratoryAddresses;\r\n    }\r\n}\r\n",
  "sourcePath": "C:\\Users\\Gayan\\Documents\\Medicrypt\\blockchain\\contracts\\LaboratoryRegistry.sol",
  "compiler": {
    "name": "solc",
    "version": "0.8.20+commit.a1b79de6.Emscripten.clang"
  },
  "schemaVersion": "3.4.16",
  "updatedAt": "2025-07-07T11:15:26.684Z",
  "networkType": "ethereum",
  "devdoc": {
    "kind": "dev",
    "methods": {},
    "version": 1
  },
  "userdoc": {
    "kind": "user",
    "methods": {},
    "version": 1
  }
}