{
  "contractName": "PatientRegistry",
  "abi": [
    {
      "anonymous": false,
      "inputs": [
        {
          "indexed": true,
          "internalType": "address",
          "name": "patientAddress",
          "type": "address"
        },
        {
          "indexed": false,
          "internalType": "string",
          "name": "firstName",
          "type": "string"
        },
        {
          "indexed": false,
          "internalType": "string",
          "name": "lastName",
          "type": "string"
        }
      ],
      "name": "PatientRegistered",
      "type": "event"
    },
    {
      "inputs": [
        {
          "internalType": "string",
          "name": "_title",
          "type": "string"
        },
        {
          "internalType": "string",
          "name": "_firstName",
          "type": "string"
        },
        {
          "internalType": "string",
          "name": "_lastName",
          "type": "string"
        },
        {
          "internalType": "string",
          "name": "_gender",
          "type": "string"
        },
        {
          "internalType": "string",
          "name": "_dob",
          "type": "string"
        },
        {
          "internalType": "string",
          "name": "_bloodGroup",
          "type": "string"
        },
        {
          "internalType": "uint256",
          "name": "_weight",
          "type": "uint256"
        },
        {
          "internalType": "uint256",
          "name": "_height",
          "type": "uint256"
        },
        {
          "internalType": "string",
          "name": "_nic",
          "type": "string"
        },
        {
          "internalType": "string",
          "name": "_patientAddress",
          "type": "string"
        },
        {
          "internalType": "string",
          "name": "_phone",
          "type": "string"
        },
        {
          "internalType": "string",
          "name": "_email",
          "type": "string"
        },
        {
          "internalType": "string",
          "name": "_emergencyContact",
          "type": "string"
        },
        {
          "internalType": "string",
          "name": "_password",
          "type": "string"
        }
      ],
      "name": "registerPatient",
      "outputs": [],
      "stateMutability": "nonpayable",
      "type": "function"
    },
    {
      "inputs": [
        {
          "internalType": "string",
          "name": "_email",
          "type": "string"
        },
        {
          "internalType": "string",
          "name": "_password",
          "type": "string"
        }
      ],
      "name": "loginPatient",
      "outputs": [
        {
          "internalType": "bool",
          "name": "",
          "type": "bool"
        }
      ],
      "stateMutability": "view",
      "type": "function",
      "constant": true
    },
    {
      "inputs": [
        {
          "internalType": "address",
          "name": "_addr",
          "type": "address"
        }
      ],
      "name": "getPatientByAddress",
      "outputs": [
        {
          "internalType": "string",
          "name": "title",
          "type": "string"
        },
        {
          "internalType": "string",
          "name": "firstName",
          "type": "string"
        },
        {
          "internalType": "string",
          "name": "lastName",
          "type": "string"
        },
        {
          "internalType": "string",
          "name": "gender",
          "type": "string"
        },
        {
          "internalType": "string",
          "name": "dob",
          "type": "string"
        },
        {
          "internalType": "string",
          "name": "bloodGroup",
          "type": "string"
        },
        {
          "internalType": "uint256",
          "name": "weight",
          "type": "uint256"
        },
        {
          "internalType": "uint256",
          "name": "height",
          "type": "uint256"
        },
        {
          "internalType": "string",
          "name": "nic",
          "type": "string"
        },
        {
          "internalType": "string",
          "name": "patientAddress",
          "type": "string"
        },
        {
          "internalType": "string",
          "name": "phone",
          "type": "string"
        },
        {
          "internalType": "string",
          "name": "email",
          "type": "string"
        },
        {
          "internalType": "string",
          "name": "emergencyContact",
          "type": "string"
        },
        {
          "internalType": "bool",
          "name": "isRegistered",
          "type": "bool"
        }
      ],
      "stateMutability": "view",
      "type": "function",
      "constant": true
    },
    {
      "inputs": [
        {
          "internalType": "address",
          "name": "_addr",
          "type": "address"
        }
      ],
      "name": "isPatientRegistered",
      "outputs": [
        {
          "internalType": "bool",
          "name": "",
          "type": "bool"
        }
      ],
      "stateMutability": "view",
      "type": "function",
      "constant": true
    },
    {
      "inputs": [],
      "name": "getAllPatients",
      "outputs": [
        {
          "internalType": "address[]",
          "name": "",
          "type": "address[]"
        }
      ],
      "stateMutability": "view",
      "type": "function",
      "constant": true
    }
  ],
  "bytecode": "0x6080806040523461001657611754908161001b8239f35b5f80fdfe6080806040526004361015610012575f80fd5b5f3560e01c90816318a231a9146114b45750806380b6b1b814611471578063ba5c033514611224578063c86611e9146110695763d22764e814610053575f80fd5b34611065576101c0366003190112611065576004356001600160401b038111611065576100849036906004016115f0565b6024356001600160401b038111611065576100a39036906004016115f0565b6044356001600160401b038111611065576100c29036906004016115f0565b916064356001600160401b038111611065576100e29036906004016115f0565b6084356001600160401b038111611065576101019036906004016115f0565b60a4356001600160401b038111611065576101209036906004016115f0565b610104356001600160401b038111611065576101409036906004016115f0565b610124356001600160401b038111611065576101609036906004016115f0565b610144356001600160401b038111611065576101809036906004016115f0565b91610164356001600160401b038111611065576101a19036906004016115f0565b936001600160401b036101843511611065576101c336610184356004016115f0565b956101a4356001600160401b038111611065576101e49036906004016115f0565b335f525f60205260ff600e60405f200154166110205760405161022460208281610217818301968781519384920161156d565b81010380845201826115cf565b51902097604051996102358b6115b3565b8a528a60208b01528b60408b015260608a0152608089015260a088015260c43560c088015260e43560e08801526101008701526101208601526101408501526101608401526101808301526101a082015260016101c0820152335f525f60205260405f2081518051906001600160401b03821161077c5781906102b88454611645565b601f8111610fd3575b50602090601f8311600114610f6b575f92610f60575b50508160011b915f199060031b1c19161781555b60208201518051906001600160401b03821161077c5781906103106001850154611645565b601f8111610f10575b50602090601f8311600114610ea2575f92610e97575b50508160011b915f199060031b1c19161760018201555b60408201518051906001600160401b03821161077c57819061036b6002850154611645565b601f8111610e47575b50602090601f8311600114610dd9575f92610dce575b50508160011b915f199060031b1c19161760028201555b60608201518051906001600160401b03821161077c5781906103c66003850154611645565b601f8111610d7e575b50602090601f8311600114610d10575f92610d05575b50508160011b915f199060031b1c19161760038201555b60808201518051906001600160401b03821161077c5781906104216004850154611645565b601f8111610cb5575b50602090601f8311600114610c47575f92610c3c575b50508160011b915f199060031b1c19161760048201555b60a08201518051906001600160401b03821161077c57819061047c6005850154611645565b601f8111610bec575b50602090601f8311600114610b7e575f92610b73575b50508160011b915f199060031b1c19161760058201555b60c0820151600682015560e082015160078201556101008201518051906001600160401b03821161077c5781906104ec6008850154611645565b601f8111610b23575b50602090601f8311600114610ab5575f92610aaa575b50508160011b915f199060031b1c19161760088201555b6101208201518051906001600160401b03821161077c5781906105486009850154611645565b601f8111610a5a575b50602090601f83116001146109ec575f926109e1575b50508160011b915f199060031b1c19161760098201555b6101408201518051906001600160401b03821161077c5781906105a4600a850154611645565b601f8111610991575b50602090601f8311600114610923575f92610918575b50508160011b915f199060031b1c191617600a8201555b6101608201518051906001600160401b03821161077c578190610600600b850154611645565b601f81116108c8575b50602090601f831160011461085a575f9261084f575b50508160011b915f199060031b1c191617600b8201555b6101808201518051906001600160401b03821161077c5761065a600c840154611645565b601f811161080b575b50602090601f831160011461079b5791806101c09492600e945f92610790575b50508160011b915f199060031b1c191617600c8201555b6101a0840151600d82015501910151151560ff801983541691161790556001546801000000000000000081101561077c576001810180600155811015610768577f5aad8bc7ad9861b16c6d01a65f54118dfe585a51e408ac2e7b9499148d515c41916107549160015f527fb10e2d527612073b26eecdfd717e6a320cf44b4afac2b0732d9fcbe2b7fa0cf601336bffffffffffffffffffffffff60a01b82541617905561076360405192839260408452604084019061158e565b8281036020840152339561158e565b0390a2005b634e487b7160e01b5f52603260045260245ffd5b634e487b7160e01b5f52604160045260245ffd5b015190505f80610683565b90601f19831691600c85015f5260205f20925f5b8181106107f35750926001928592600e966101c09896106107db575b505050811b01600c82015561069a565b01515f1960f88460031b161c191690555f80806107cb565b929360206001819287860151815501950193016107af565b600c84015f5260205f20601f840160051c810160208510610848575b601f830160051c8201811061083d575050610663565b5f8155600101610827565b5080610827565b015190505f8061061f565b9250600b84015f5260205f20905f935b601f19841685106108ad576001945083601f19811610610895575b505050811b01600b820155610636565b01515f1960f88460031b161c191690555f8080610885565b8181015183556020948501946001909301929091019061086a565b909150600b84015f5260205f20601f840160051c810160208510610911575b90849392915b601f830160051c82018110610903575050610609565b5f81558594506001016108ed565b50806108e7565b015190505f806105c3565b9250600a84015f5260205f20905f935b601f1984168510610976576001945083601f1981161061095e575b505050811b01600a8201556105da565b01515f1960f88460031b161c191690555f808061094e565b81810151835560209485019460019093019290910190610933565b909150600a84015f5260205f20601f840160051c8101602085106109da575b90849392915b601f830160051c820181106109cc5750506105ad565b5f81558594506001016109b6565b50806109b0565b015190505f80610567565b9250600984015f5260205f20905f935b601f1984168510610a3f576001945083601f19811610610a27575b505050811b01600982015561057e565b01515f1960f88460031b161c191690555f8080610a17565b818101518355602094850194600190930192909101906109fc565b909150600984015f5260205f20601f840160051c810160208510610aa3575b90849392915b601f830160051c82018110610a95575050610551565b5f8155859450600101610a7f565b5080610a79565b015190505f8061050b565b9250600884015f5260205f20905f935b601f1984168510610b08576001945083601f19811610610af0575b505050811b016008820155610522565b01515f1960f88460031b161c191690555f8080610ae0565b81810151835560209485019460019093019290910190610ac5565b909150600884015f5260205f20601f840160051c810160208510610b6c575b90849392915b601f830160051c82018110610b5e5750506104f5565b5f8155859450600101610b48565b5080610b42565b015190505f8061049b565b9250600584015f5260205f20905f935b601f1984168510610bd1576001945083601f19811610610bb9575b505050811b0160058201556104b2565b01515f1960f88460031b161c191690555f8080610ba9565b81810151835560209485019460019093019290910190610b8e565b909150600584015f5260205f20601f840160051c810160208510610c35575b90849392915b601f830160051c82018110610c27575050610485565b5f8155859450600101610c11565b5080610c0b565b015190505f80610440565b9250600484015f5260205f20905f935b601f1984168510610c9a576001945083601f19811610610c82575b505050811b016004820155610457565b01515f1960f88460031b161c191690555f8080610c72565b81810151835560209485019460019093019290910190610c57565b909150600484015f5260205f20601f840160051c810160208510610cfe575b90849392915b601f830160051c82018110610cf057505061042a565b5f8155859450600101610cda565b5080610cd4565b015190505f806103e5565b9250600384015f5260205f20905f935b601f1984168510610d63576001945083601f19811610610d4b575b505050811b0160038201556103fc565b01515f1960f88460031b161c191690555f8080610d3b565b81810151835560209485019460019093019290910190610d20565b909150600384015f5260205f20601f840160051c810160208510610dc7575b90849392915b601f830160051c82018110610db95750506103cf565b5f8155859450600101610da3565b5080610d9d565b015190505f8061038a565b9250600284015f5260205f20905f935b601f1984168510610e2c576001945083601f19811610610e14575b505050811b0160028201556103a1565b01515f1960f88460031b161c191690555f8080610e04565b81810151835560209485019460019093019290910190610de9565b909150600284015f5260205f20601f840160051c810160208510610e90575b90849392915b601f830160051c82018110610e82575050610374565b5f8155859450600101610e6c565b5080610e66565b015190505f8061032f565b9250600184015f5260205f20905f935b601f1984168510610ef5576001945083601f19811610610edd575b505050811b016001820155610346565b01515f1960f88460031b161c191690555f8080610ecd565b81810151835560209485019460019093019290910190610eb2565b909150600184015f5260205f20601f840160051c810160208510610f59575b90849392915b601f830160051c82018110610f4b575050610319565b5f8155859450600101610f35565b5080610f2f565b015190505f806102d7565b9250835f5260205f20905f935b601f1984168510610fb8576001945083601f19811610610fa0575b505050811b0181556102eb565b01515f1960f88460031b161c191690555f8080610f93565b81810151835560209485019460019093019290910190610f78565b909150835f5260205f20601f840160051c810160208510611019575b90849392915b601f830160051c8201811061100b5750506102c1565b5f8155859450600101610ff5565b5080610fef565b60405162461bcd60e51b815260206004820152601a60248201527f50617469656e7420616c726561647920726567697374657265640000000000006044820152606490fd5b5f80fd5b34611065576040366003190112611065576001600160401b036004358181116110655761109a9036906004016115f0565b90602435908111611065576110b39036906004016115f0565b335f526020915f835260ff600e60405f20015416156111e657335f525f8352600b60405f20016040518481818101935f9080546110ef81611645565b916001918083169081156111c65750600114611189575b50505061111c925003601f1981018352826115cf565b5190209060405161113c858281610217818301968781519384920161156d565b5190201490335f525f8352600d60405f2001549060405161116c858281610217818301968781519384920161156d565b5190201481611181575b506040519015158152f35b905082611176565b5f908152858120929350915b8383106111b0575050509161111c9282010187928980611106565b8054878401870152869450918501918101611195565b9250505061111c94925060ff191686528015150282010187928980611106565b60405162461bcd60e51b815260048101849052601660248201527514185d1a595b9d081b9bdd081c9959da5cdd195c995960521b6044820152606490fd5b34611065576020366003190112611065576004356001600160a01b03811690819003611065575f525f60205260405f2060405190611261826115b3565b61126a8161167d565b82526112786001820161167d565b60208301526112896002820161167d565b604083015261129a6003820161167d565b60608301526112ab6004820161167d565b60808301526112bc6005820161167d565b60a0830152600681015460c0830152600781015460e08301526112e16008820161167d565b6101008301526112f36009820161167d565b610120830152611305600a820161167d565b610140830152611317600b820161167d565b610160830152611329600c820161167d565b9081610180840152600d8101546101a0840152600e015460ff161515806101c08401528251916020840151936040810151906060810151608082015160a083015160c08401519060e0850151906101008601519361012087015195610140880151976101600151986040519d8e809e6101c082526101c082016113ab9161158e565b9080820390602001526113bd9161158e565b8d810360408f01526113ce9161158e565b8c810360608e01526113df9161158e565b8b810360808d01526113f09161158e565b8a810360a08c01526114019161158e565b9160c08a015260e089015287810361010089015261141e9161158e565b8681036101208801526114309161158e565b8581036101408701526114429161158e565b8481036101608601526114549161158e565b8381036101808501526114669161158e565b906101a08301520390f35b34611065576020366003190112611065576004356001600160a01b03811690819003611065575f525f602052602060ff600e60405f200154166040519015158152f35b34611065575f3660031901126110655760019081549182825260208083018094835f527fb10e2d527612073b26eecdfd717e6a320cf44b4afac2b0732d9fcbe2b7fa0cf6905f5b81811061155157505050836115119103846115cf565b6040519281840190828552518091526040840194915f5b8281106115355785870386f35b83516001600160a01b0316875295810195928101928401611528565b82546001600160a01b03168452928401929185019185016114fb565b5f5b83811061157e5750505f910152565b818101518382015260200161156f565b906020916115a78151809281855285808601910161156d565b601f01601f1916010190565b6101e081019081106001600160401b0382111761077c57604052565b90601f801991011681019081106001600160401b0382111761077c57604052565b81601f82011215611065578035906001600160401b03821161077c5760405192611624601f8401601f1916602001856115cf565b8284526020838301011161106557815f926020809301838601378301015290565b90600182811c92168015611673575b602083101461165f57565b634e487b7160e01b5f52602260045260245ffd5b91607f1691611654565b9060405191825f82549261169084611645565b9081845260019485811690815f146116fb57506001146116bb575b50506116b9925003836115cf565b565b909391505f52602090815f20935f915b8183106116e35750506116b993508201015f806116ab565b855488840185015294850194879450918301916116cb565b9150506116b994506020925060ff191682840152151560051b8201015f806116ab56fea26469706673582212200c04735bca9dea2ac5b491e8a325599318562c3260f05545e00bbc632412892264736f6c63430008140033",
  "immutableReferences": {},
  "source": "// SPDX-License-Identifier: MIT\r\npragma solidity ^0.8.0;\r\n\r\ncontract PatientRegistry {\r\n    struct Patient {\r\n        string title;\r\n        string firstName;\r\n        string lastName;\r\n        string gender;\r\n        string dob; // Date of Birth as string (e.g., \"YYYY-MM-DD\")\r\n        string bloodGroup;\r\n        uint256 weight; // store weight as integer (kg)\r\n        uint256 height; // store height as integer (cm)\r\n        string nic; // National ID card number\r\n        string patientAddress; // Residential address\r\n        string phone;\r\n        string email;\r\n        string emergencyContact;\r\n        bytes32 passwordHash; // store hash of password\r\n        bool isRegistered;\r\n    }\r\n\r\n    mapping(address => Patient) private patients;\r\n    address[] private patientAddresses;\r\n\r\n    event PatientRegistered(\r\n        address indexed patientAddress,\r\n        string firstName,\r\n        string lastName\r\n    );\r\n\r\n    function registerPatient(\r\n        string memory _title,\r\n        string memory _firstName,\r\n        string memory _lastName,\r\n        string memory _gender,\r\n        string memory _dob,\r\n        string memory _bloodGroup,\r\n        uint256 _weight,\r\n        uint256 _height,\r\n        string memory _nic,\r\n        string memory _patientAddress,\r\n        string memory _phone,\r\n        string memory _email,\r\n        string memory _emergencyContact,\r\n        string memory _password\r\n    ) public {\r\n        require(\r\n            !patients[msg.sender].isRegistered,\r\n            \"Patient already registered\"\r\n        );\r\n\r\n        patients[msg.sender] = Patient({\r\n            title: _title,\r\n            firstName: _firstName,\r\n            lastName: _lastName,\r\n            gender: _gender,\r\n            dob: _dob,\r\n            bloodGroup: _bloodGroup,\r\n            weight: _weight,\r\n            height: _height,\r\n            nic: _nic,\r\n            patientAddress: _patientAddress,\r\n            phone: _phone,\r\n            email: _email,\r\n            emergencyContact: _emergencyContact,\r\n            passwordHash: keccak256(abi.encodePacked(_password)),\r\n            isRegistered: true\r\n        });\r\n\r\n        patientAddresses.push(msg.sender);\r\n        emit PatientRegistered(msg.sender, _firstName, _lastName);\r\n    }\r\n\r\n    function loginPatient(\r\n        string memory _email,\r\n        string memory _password\r\n    ) public view returns (bool) {\r\n        require(patients[msg.sender].isRegistered, \"Patient not registered\");\r\n\r\n        bool emailMatches = keccak256(\r\n            abi.encodePacked(patients[msg.sender].email)\r\n        ) == keccak256(abi.encodePacked(_email));\r\n        bool passwordMatches = patients[msg.sender].passwordHash ==\r\n            keccak256(abi.encodePacked(_password));\r\n\r\n        return emailMatches && passwordMatches;\r\n    }\r\n\r\n    function getPatientByAddress(\r\n        address _addr\r\n    )\r\n        public\r\n        view\r\n        returns (\r\n            string memory title,\r\n            string memory firstName,\r\n            string memory lastName,\r\n            string memory gender,\r\n            string memory dob,\r\n            string memory bloodGroup,\r\n            uint256 weight,\r\n            uint256 height,\r\n            string memory nic,\r\n            string memory patientAddress,\r\n            string memory phone,\r\n            string memory email,\r\n            string memory emergencyContact,\r\n            bool isRegistered\r\n        )\r\n    {\r\n        Patient memory p = patients[_addr];\r\n        return (\r\n            p.title,\r\n            p.firstName,\r\n            p.lastName,\r\n            p.gender,\r\n            p.dob,\r\n            p.bloodGroup,\r\n            p.weight,\r\n            p.height,\r\n            p.nic,\r\n            p.patientAddress,\r\n            p.phone,\r\n            p.email,\r\n            p.emergencyContact,\r\n            p.isRegistered\r\n        );\r\n    }\r\n\r\n    function isPatientRegistered(address _addr) public view returns (bool) {\r\n        return patients[_addr].isRegistered;\r\n    }\r\n\r\n    function getAllPatients() public view returns (address[] memory) {\r\n        return patientAddresses;\r\n    }\r\n}\r\n",
  "sourcePath": "C:\\Users\\Gayan\\Documents\\Medicrypt\\blockchain\\contracts\\PatientRegistry.sol",
  "compiler": {
    "name": "solc",
    "version": "0.8.20+commit.a1b79de6.Emscripten.clang"
  },
  "schemaVersion": "3.4.16",
  "updatedAt": "2025-07-07T11:15:26.676Z",
  "networkType": "ethereum",
  "devdoc": {
    "kind": "dev",
    "methods": {},
    "version": 1
  },
  "userdoc": {
    "kind": "user",
    "methods": {},
    "version": 1
  }
}