{
  "contractName": "ResearcherRegistry",
  "abi": [
    {
      "anonymous": false,
      "inputs": [
        {
          "indexed": true,
          "internalType": "address",
          "name": "researcherAddress",
          "type": "address"
        },
        {
          "indexed": false,
          "internalType": "string",
          "name": "firstName",
          "type": "string"
        },
        {
          "indexed": false,
          "internalType": "string",
          "name": "lastName",
          "type": "string"
        }
      ],
      "name": "ResearcherRegistered",
      "type": "event"
    },
    {
      "inputs": [
        {
          "internalType": "string",
          "name": "_photo",
          "type": "string"
        },
        {
          "internalType": "string",
          "name": "_instituteName",
          "type": "string"
        },
        {
          "internalType": "string",
          "name": "_title",
          "type": "string"
        },
        {
          "internalType": "string",
          "name": "_firstName",
          "type": "string"
        },
        {
          "internalType": "string",
          "name": "_lastName",
          "type": "string"
        },
        {
          "internalType": "string",
          "name": "_destination",
          "type": "string"
        },
        {
          "internalType": "string",
          "name": "_gender",
          "type": "string"
        },
        {
          "internalType": "string",
          "name": "_nic",
          "type": "string"
        },
        {
          "internalType": "string",
          "name": "_addressInfo",
          "type": "string"
        },
        {
          "internalType": "string",
          "name": "_email",
          "type": "string"
        },
        {
          "internalType": "string",
          "name": "_phone",
          "type": "string"
        },
        {
          "internalType": "string",
          "name": "_educationQualification",
          "type": "string"
        },
        {
          "internalType": "string",
          "name": "_password",
          "type": "string"
        }
      ],
      "name": "registerResearcher",
      "outputs": [],
      "stateMutability": "nonpayable",
      "type": "function"
    },
    {
      "inputs": [
        {
          "internalType": "string",
          "name": "_email",
          "type": "string"
        },
        {
          "internalType": "string",
          "name": "_password",
          "type": "string"
        }
      ],
      "name": "loginResearcher",
      "outputs": [
        {
          "internalType": "bool",
          "name": "",
          "type": "bool"
        }
      ],
      "stateMutability": "view",
      "type": "function",
      "constant": true
    },
    {
      "inputs": [
        {
          "internalType": "address",
          "name": "_addr",
          "type": "address"
        }
      ],
      "name": "getResearcherByAddress",
      "outputs": [
        {
          "internalType": "string",
          "name": "",
          "type": "string"
        },
        {
          "internalType": "string",
          "name": "",
          "type": "string"
        },
        {
          "internalType": "string",
          "name": "",
          "type": "string"
        },
        {
          "internalType": "string",
          "name": "",
          "type": "string"
        },
        {
          "internalType": "string",
          "name": "",
          "type": "string"
        },
        {
          "internalType": "string",
          "name": "",
          "type": "string"
        },
        {
          "internalType": "string",
          "name": "",
          "type": "string"
        },
        {
          "internalType": "string",
          "name": "",
          "type": "string"
        },
        {
          "internalType": "string",
          "name": "",
          "type": "string"
        },
        {
          "internalType": "string",
          "name": "",
          "type": "string"
        },
        {
          "internalType": "string",
          "name": "",
          "type": "string"
        },
        {
          "internalType": "string",
          "name": "",
          "type": "string"
        },
        {
          "internalType": "bool",
          "name": "",
          "type": "bool"
        }
      ],
      "stateMutability": "view",
      "type": "function",
      "constant": true
    },
    {
      "inputs": [
        {
          "internalType": "address",
          "name": "_addr",
          "type": "address"
        }
      ],
      "name": "isResearcherRegistered",
      "outputs": [
        {
          "internalType": "bool",
          "name": "",
          "type": "bool"
        }
      ],
      "stateMutability": "view",
      "type": "function",
      "constant": true
    },
    {
      "inputs": [],
      "name": "getAllResearchers",
      "outputs": [
        {
          "internalType": "address[]",
          "name": "",
          "type": "address[]"
        }
      ],
      "stateMutability": "view",
      "type": "function",
      "constant": true
    }
  ],
  "bytecode": "0x6080806040523461001657611878908161001b8239f35b5f80fdfe6080806040526004361015610012575f80fd5b5f3560e01c9081633d3f8c4b146115d85750806344ad27db1461159557806369d887661461135057806386fb481a146102265763c69d72b414610053575f80fd5b34610222576040366003190112610222576001600160401b0360043581811161022257610084903690600401611714565b906024359081116102225761009d903690600401611714565b335f526020915f835260ff600d60405f20015416156101dd57335f525f8352600960405f20016040518481818101935f9080546100d981611769565b916001918083169081156101bd5750600114610180575b505050610106925003601f1981018352826116f3565b519020906040516101338582816101268183019687815193849201611691565b81010380845201826116f3565b5190201490335f525f8352600c60405f200154906040516101638582816101268183019687815193849201611691565b5190201481610178575b506040519015158152f35b90505f61016d565b5f908152858120929350915b8383106101a757505050916101069282010187925f806100f0565b805487840187015286945091850191810161018c565b9250505061010694925060ff191686528015150282010187925f806100f0565b60405162461bcd60e51b815260048101849052601960248201527f52657365617263686572206e6f742072656769737465726564000000000000006044820152606490fd5b5f80fd5b34610222576101a0366003190112610222576004356001600160401b03811161022257610257903690600401611714565b6024356001600160401b03811161022257610276903690600401611714565b6044356001600160401b03811161022257610295903690600401611714565b916064356001600160401b038111610222576102b5903690600401611714565b916084356001600160401b038111610222576102d5903690600401611714565b9360a4356001600160401b038111610222576102f5903690600401611714565b60c4356001600160401b03811161022257610314903690600401611714565b60e4356001600160401b03811161022257610333903690600401611714565b610104356001600160401b03811161022257610353903690600401611714565b90610124356001600160401b03811161022257610374903690600401611714565b926001600160401b036101443511610222576103963661014435600401611714565b94610164356001600160401b038111610222576103b7903690600401611714565b966001600160401b036101843511610222576103d93661018435600401611714565b335f525f60205260ff600d60405f2001541661130b5760405161040c602082816101268183019687815193849201611691565b519020986040519a61041d8c6116d7565b8b5260208b015260408a01528960608a01528a60808a015260a089015260c088015260e087015261010086015261012085015261014084015261016083015261018082015260016101a0820152335f525f60205260405f2081518051906001600160401b03821161099e5781906104948454611769565b601f81116112be575b50602090601f8311600114611256575f9261124b575b50508160011b915f199060031b1c19161781555b60208201518051906001600160401b03821161099e5781906104ec6001850154611769565b601f81116111fb575b50602090601f831160011461118d575f92611182575b50508160011b915f199060031b1c19161760018201555b60408201518051906001600160401b03821161099e5781906105476002850154611769565b601f8111611132575b50602090601f83116001146110c4575f926110b9575b50508160011b915f199060031b1c19161760028201555b60608201518051906001600160401b03821161099e5781906105a26003850154611769565b601f8111611069575b50602090601f8311600114610ffb575f92610ff0575b50508160011b915f199060031b1c19161760038201555b60808201518051906001600160401b03821161099e5781906105fd6004850154611769565b601f8111610fa0575b50602090601f8311600114610f32575f92610f27575b50508160011b915f199060031b1c19161760048201555b60a08201518051906001600160401b03821161099e5781906106586005850154611769565b601f8111610ed7575b50602090601f8311600114610e69575f92610e5e575b50508160011b915f199060031b1c19161760058201555b60c08201518051906001600160401b03821161099e5781906106b36006850154611769565b601f8111610e0e575b50602090601f8311600114610da0575f92610d95575b50508160011b915f199060031b1c19161760068201555b60e08201518051906001600160401b03821161099e57819061070e6007850154611769565b601f8111610d45575b50602090601f8311600114610cd7575f92610ccc575b50508160011b915f199060031b1c19161760078201555b6101008201518051906001600160401b03821161099e57819061076a6008850154611769565b601f8111610c7c575b50602090601f8311600114610c0e575f92610c03575b50508160011b915f199060031b1c19161760088201555b6101208201518051906001600160401b03821161099e5781906107c66009850154611769565b601f8111610bb3575b50602090601f8311600114610b45575f92610b3a575b50508160011b915f199060031b1c19161760098201555b6101408201518051906001600160401b03821161099e578190610822600a850154611769565b601f8111610aea575b50602090601f8311600114610a7c575f92610a71575b50508160011b915f199060031b1c191617600a8201555b6101608201518051906001600160401b03821161099e5761087c600b840154611769565b601f8111610a2d575b50602090601f83116001146109bd5791806101a09492600d945f926109b2575b50508160011b915f199060031b1c191617600b8201555b610180840151600c82015501910151151560ff801983541691161790556001546801000000000000000081101561099e57600181018060015581101561098a577f2f0a9268cd645aeab901e327b054361a5beff93727092980d07f1bc28ace26c7916109769160015f527fb10e2d527612073b26eecdfd717e6a320cf44b4afac2b0732d9fcbe2b7fa0cf601336bffffffffffffffffffffffff60a01b8254161790556109856040519283926040845260408401906116b2565b828103602084015233956116b2565b0390a2005b634e487b7160e01b5f52603260045260245ffd5b634e487b7160e01b5f52604160045260245ffd5b0151905088806108a5565b90601f19831691600b85015f5260205f20925f5b818110610a155750926001928592600d966101a09896106109fd575b505050811b01600b8201556108bc565b01515f1960f88460031b161c191690558880806109ed565b929360206001819287860151815501950193016109d1565b600b84015f5260205f20601f840160051c810160208510610a6a575b601f830160051c82018110610a5f575050610885565b5f8155600101610a49565b5080610a49565b015190508680610841565b9250600a84015f5260205f20905f935b601f1984168510610acf576001945083601f19811610610ab7575b505050811b01600a820155610858565b01515f1960f88460031b161c19169055868080610aa7565b81810151835560209485019460019093019290910190610a8c565b909150600a84015f5260205f20601f840160051c810160208510610b33575b90849392915b601f830160051c82018110610b2557505061082b565b5f8155859450600101610b0f565b5080610b09565b0151905086806107e5565b9250600984015f5260205f20905f935b601f1984168510610b98576001945083601f19811610610b80575b505050811b0160098201556107fc565b01515f1960f88460031b161c19169055868080610b70565b81810151835560209485019460019093019290910190610b55565b909150600984015f5260205f20601f840160051c810160208510610bfc575b90849392915b601f830160051c82018110610bee5750506107cf565b5f8155859450600101610bd8565b5080610bd2565b015190508680610789565b9250600884015f5260205f20905f935b601f1984168510610c61576001945083601f19811610610c49575b505050811b0160088201556107a0565b01515f1960f88460031b161c19169055868080610c39565b81810151835560209485019460019093019290910190610c1e565b909150600884015f5260205f20601f840160051c810160208510610cc5575b90849392915b601f830160051c82018110610cb7575050610773565b5f8155859450600101610ca1565b5080610c9b565b01519050868061072d565b9250600784015f5260205f20905f935b601f1984168510610d2a576001945083601f19811610610d12575b505050811b016007820155610744565b01515f1960f88460031b161c19169055868080610d02565b81810151835560209485019460019093019290910190610ce7565b909150600784015f5260205f20601f840160051c810160208510610d8e575b90849392915b601f830160051c82018110610d80575050610717565b5f8155859450600101610d6a565b5080610d64565b0151905086806106d2565b9250600684015f5260205f20905f935b601f1984168510610df3576001945083601f19811610610ddb575b505050811b0160068201556106e9565b01515f1960f88460031b161c19169055868080610dcb565b81810151835560209485019460019093019290910190610db0565b909150600684015f5260205f20601f840160051c810160208510610e57575b90849392915b601f830160051c82018110610e495750506106bc565b5f8155859450600101610e33565b5080610e2d565b015190508680610677565b9250600584015f5260205f20905f935b601f1984168510610ebc576001945083601f19811610610ea4575b505050811b01600582015561068e565b01515f1960f88460031b161c19169055868080610e94565b81810151835560209485019460019093019290910190610e79565b909150600584015f5260205f20601f840160051c810160208510610f20575b90849392915b601f830160051c82018110610f12575050610661565b5f8155859450600101610efc565b5080610ef6565b01519050868061061c565b9250600484015f5260205f20905f935b601f1984168510610f85576001945083601f19811610610f6d575b505050811b016004820155610633565b01515f1960f88460031b161c19169055868080610f5d565b81810151835560209485019460019093019290910190610f42565b909150600484015f5260205f20601f840160051c810160208510610fe9575b90849392915b601f830160051c82018110610fdb575050610606565b5f8155859450600101610fc5565b5080610fbf565b0151905086806105c1565b9250600384015f5260205f20905f935b601f198416851061104e576001945083601f19811610611036575b505050811b0160038201556105d8565b01515f1960f88460031b161c19169055868080611026565b8181015183556020948501946001909301929091019061100b565b909150600384015f5260205f20601f840160051c8101602085106110b2575b90849392915b601f830160051c820181106110a45750506105ab565b5f815585945060010161108e565b5080611088565b015190508680610566565b9250600284015f5260205f20905f935b601f1984168510611117576001945083601f198116106110ff575b505050811b01600282015561057d565b01515f1960f88460031b161c191690558680806110ef565b818101518355602094850194600190930192909101906110d4565b909150600284015f5260205f20601f840160051c81016020851061117b575b90849392915b601f830160051c8201811061116d575050610550565b5f8155859450600101611157565b5080611151565b01519050868061050b565b9250600184015f5260205f20905f935b601f19841685106111e0576001945083601f198116106111c8575b505050811b016001820155610522565b01515f1960f88460031b161c191690558680806111b8565b8181015183556020948501946001909301929091019061119d565b909150600184015f5260205f20601f840160051c810160208510611244575b90849392915b601f830160051c820181106112365750506104f5565b5f8155859450600101611220565b508061121a565b0151905086806104b3565b9250835f5260205f20905f935b601f19841685106112a3576001945083601f1981161061128b575b505050811b0181556104c7565b01515f1960f88460031b161c1916905586808061127e565b81810151835560209485019460019093019290910190611263565b909150835f5260205f20601f840160051c810160208510611304575b90849392915b601f830160051c820181106112f657505061049d565b5f81558594506001016112e0565b50806112da565b60405162461bcd60e51b815260206004820152601d60248201527f5265736561726368657220616c726561647920726567697374657265640000006044820152606490fd5b34610222576020366003190112610222576004356001600160a01b03811690819003610222575f525f60205260405f206040519061138d826116d7565b611396816117a1565b82526113a4600182016117a1565b60208301526113b5600282016117a1565b60408301526113c6600382016117a1565b60608301526113d7600482016117a1565b60808301526113e8600582016117a1565b60a08301526113f9600682016117a1565b60c083015261140a600782016117a1565b60e083015261141b600882016117a1565b61010083015261142d600982016117a1565b61012083015261143f600a82016117a1565b610140830152611451600b82016117a1565b9081610160840152600c810154610180840152600d015460ff161515806101a08401528251916020840151936040810151906060810151608082015160a083015160c08401519060e08501519261010086015194610120870151966101400151976040519c8d9c8d6101a081526101a0016114cb916116b2565b8d810360208f01526114dc916116b2565b8c810360408e01526114ed916116b2565b8b810360608d01526114fe916116b2565b8a810360808c015261150f916116b2565b89810360a08b0152611520916116b2565b88810360c08a0152611531916116b2565b87810360e0890152611542916116b2565b868103610100880152611554916116b2565b858103610120870152611566916116b2565b848103610140860152611578916116b2565b83810361016085015261158a916116b2565b906101808301520390f35b34610222576020366003190112610222576004356001600160a01b03811690819003610222575f525f602052602060ff600d60405f200154166040519015158152f35b34610222575f3660031901126102225760019081549182825260208083018094835f527fb10e2d527612073b26eecdfd717e6a320cf44b4afac2b0732d9fcbe2b7fa0cf6905f5b81811061167557505050836116359103846116f3565b6040519281840190828552518091526040840194915f5b8281106116595785870386f35b83516001600160a01b031687529581019592810192840161164c565b82546001600160a01b031684529284019291850191850161161f565b5f5b8381106116a25750505f910152565b8181015183820152602001611693565b906020916116cb81518092818552858086019101611691565b601f01601f1916010190565b6101c081019081106001600160401b0382111761099e57604052565b90601f801991011681019081106001600160401b0382111761099e57604052565b81601f82011215610222578035906001600160401b03821161099e5760405192611748601f8401601f1916602001856116f3565b8284526020838301011161022257815f926020809301838601378301015290565b90600182811c92168015611797575b602083101461178357565b634e487b7160e01b5f52602260045260245ffd5b91607f1691611778565b9060405191825f8254926117b484611769565b9081845260019485811690815f1461181f57506001146117df575b50506117dd925003836116f3565b565b909391505f52602090815f20935f915b8183106118075750506117dd93508201015f806117cf565b855488840185015294850194879450918301916117ef565b9150506117dd94506020925060ff191682840152151560051b8201015f806117cf56fea26469706673582212200f74a30ba274cb5a0c540bf408e950da5cc7ff445920584752ae1b1a2d2a804464736f6c63430008140033",
  "immutableReferences": {},
  "source": "// SPDX-License-Identifier: MIT\r\npragma solidity ^0.8.0;\r\n\r\ncontract ResearcherRegistry {\r\n    struct Researcher {\r\n        string photo;\r\n        string instituteName;\r\n        string title;\r\n        string firstName;\r\n        string lastName;\r\n        string destination;\r\n        string gender;\r\n        string nic;\r\n        string addressInfo;\r\n        string email;\r\n        string phone;\r\n        string educationQualification;\r\n        bytes32 passwordHash;\r\n        bool isRegistered;\r\n    }\r\n\r\n    mapping(address => Researcher) private researchers;\r\n    address[] private researcherAddresses;\r\n\r\n    event ResearcherRegistered(\r\n        address indexed researcherAddress,\r\n        string firstName,\r\n        string lastName\r\n    );\r\n\r\n    function registerResearcher(\r\n        string memory _photo,\r\n        string memory _instituteName,\r\n        string memory _title,\r\n        string memory _firstName,\r\n        string memory _lastName,\r\n        string memory _destination,\r\n        string memory _gender,\r\n        string memory _nic,\r\n        string memory _addressInfo,\r\n        string memory _email,\r\n        string memory _phone,\r\n        string memory _educationQualification,\r\n        string memory _password\r\n    ) public {\r\n        require(\r\n            !researchers[msg.sender].isRegistered,\r\n            \"Researcher already registered\"\r\n        );\r\n\r\n        researchers[msg.sender] = Researcher({\r\n            photo: _photo,\r\n            instituteName: _instituteName,\r\n            title: _title,\r\n            firstName: _firstName,\r\n            lastName: _lastName,\r\n            destination: _destination,\r\n            gender: _gender,\r\n            nic: _nic,\r\n            addressInfo: _addressInfo,\r\n            email: _email,\r\n            phone: _phone,\r\n            educationQualification: _educationQualification,\r\n            passwordHash: keccak256(abi.encodePacked(_password)),\r\n            isRegistered: true\r\n        });\r\n\r\n        researcherAddresses.push(msg.sender);\r\n        emit ResearcherRegistered(msg.sender, _firstName, _lastName);\r\n    }\r\n\r\n    function loginResearcher(\r\n        string memory _email,\r\n        string memory _password\r\n    ) public view returns (bool) {\r\n        require(\r\n            researchers[msg.sender].isRegistered,\r\n            \"Researcher not registered\"\r\n        );\r\n\r\n        bool emailMatches = keccak256(\r\n            abi.encodePacked(researchers[msg.sender].email)\r\n        ) == keccak256(abi.encodePacked(_email));\r\n        bool passwordMatches = researchers[msg.sender].passwordHash ==\r\n            keccak256(abi.encodePacked(_password));\r\n\r\n        return emailMatches && passwordMatches;\r\n    }\r\n\r\n    function getResearcherByAddress(\r\n        address _addr\r\n    )\r\n        public\r\n        view\r\n        returns (\r\n            string memory,\r\n            string memory,\r\n            string memory,\r\n            string memory,\r\n            string memory,\r\n            string memory,\r\n            string memory,\r\n            string memory,\r\n            string memory,\r\n            string memory,\r\n            string memory,\r\n            string memory,\r\n            bool\r\n        )\r\n    {\r\n        Researcher memory r = researchers[_addr];\r\n        return (\r\n            r.photo,\r\n            r.instituteName,\r\n            r.title,\r\n            r.firstName,\r\n            r.lastName,\r\n            r.destination,\r\n            r.gender,\r\n            r.nic,\r\n            r.addressInfo,\r\n            r.email,\r\n            r.phone,\r\n            r.educationQualification,\r\n            r.isRegistered\r\n        );\r\n    }\r\n\r\n    function isResearcherRegistered(address _addr) public view returns (bool) {\r\n        return researchers[_addr].isRegistered;\r\n    }\r\n\r\n    function getAllResearchers() public view returns (address[] memory) {\r\n        return researcherAddresses;\r\n    }\r\n}\r\n",
  "sourcePath": "C:\\Users\\Gayan\\Documents\\Medicrypt\\blockchain\\contracts\\ResearcherRegistry.sol",
  "compiler": {
    "name": "solc",
    "version": "0.8.20+commit.a1b79de6.Emscripten.clang"
  },
  "schemaVersion": "3.4.16",
  "updatedAt": "2025-07-07T11:15:26.688Z",
  "networkType": "ethereum",
  "devdoc": {
    "kind": "dev",
    "methods": {},
    "version": 1
  },
  "userdoc": {
    "kind": "user",
    "methods": {},
    "version": 1
  }
}